:020000040800F2
:1000000048350120195B00081559000817590008E8
:10001000195900081B5900081D590008000000006C
:10002000000000000000000000000000491B000864
:100030001F59000800000000F11A00088114000890
:100040009D5B0008A15B0008A55B0008A95B000898
:10005000AD5B0008B15B0008B55B0008B95B000848
:10006000BD5B0008C15B0008C55B0008C95B0008F8
:10007000CD5B0008D15B0008D55B0008D95B0008A8
:10008000DD5B0008E15B0008E55B0008E95B000858
:10009000ED5B0008F15B0008F55B0008A14D00086E
:1000A000F95B0008FD5B0008015C0008055C0008C6
:1000B000095C00080D5C0008115C0008155C000874
:1000C000195C00081D5C0008215C0008255C000824
:1000D000295C0008215900082D5C0008315C0008EB
:1000E000355C0008395C00083D5C0008415C000894
:1000F000455C0008495C00084D5C0008515C000844
:10010000555C0008595C00085D5C0008615C0008F3
:10011000655C00082B590008695C00086D5C0008EC
:10012000715C0008755C0008795C00087D5C000863
:10013000815C0008855C0008895C00088D5C000813
:10014000915C0008955C0008995C00089D5C0008C3
:10015000A15C0008A55C0008A95C0008AD5C000873
:10016000B15C0008B55C0008B95C0008BD5C000823
:10017000C15C0008C55C0008C95C00080000000004
:10018000CD5C0008D15C00082DE9F84384B08046BE
:10019000894616001F00B6B2B00000F0FBFE050055
:1001A000002D0BD0582000F0F5FE0400002C01D0EB
:1001B000256304E0280000F074FF00E00024002C18
:1001C00012D00D990C980022039202940191009094
:1001D0003B00B6B232004946404600F00AF8200023
:1001E00000F062F8012001E05FF0FF3005B0BDE8EB
:1001F000F0832DE9F84380460C0017001D000A9E8D
:10020000B900A522D6F83090484600F0F1FF306BD7
:1002100000EB8700071FFF08FF0017F0070000280A
:1002200007D0502080F31188BFF34F8FBFF36F8F3B
:10023000FEE7002100E0491C0A2907D2605C06EBBA
:10024000010282F83400605C0028F4D1DDF82090CF
:10025000002086F83D00B9F1200F01D35FF01F099F
:10026000099CC6F82C90C6F848900020F064301D18
:1002700001F000F816F1180000F0FCFF3661D9F12A
:100280002009C6F81890766200203065002086F8B4
:1002900054002A004146380001F02EF83060002C4E
:1002A00000D02660BDE8F18310B5040001F0B2F87B
:1002B000DFF878060068401CDFF870160860DFF889
:1002C0007006006800280AD1DFF864060460DFF8D1
:1002D0005C060068012811D100F09BFC0EE0DFF8FD
:1002E000C4060068002809D1E06ADFF844160968EE
:1002F000C96A884202D3DFF838060460DFF8A8062E
:100300000068401CDFF8A0160860DFF89C06006853
:100310002064DFF8C80601680122E06A82401143C8
:10032000DFF8B8060160211DDFF8B426E36A142067
:10033000434302EB030000F0A0FF01F088F8DFF870
:100340006406006800280FD0DFF8E4050068C06A82
:10035000E16A884208D25FF08050DFF888170860B1
:10036000BFF34F8FBFF36F8F10BD10B5040001F0C6
:1003700051F8002C03D1DFF8B8050468FFE7201D11
:1003800000F0A2FF002811D1DFF85416E26A142011
:1003900042438858002809D1DFF84006016801224D
:1003A000E06A82409143DFF834060160A06A0028C9
:1003B00003D014F1180000F087FFDFF8EC050068A7
:1003C000401CDFF8E4150860DFF86405006884422B
:1003D0000CD1211DDFF8480600F04FFFDFF844067E
:1003E0000068401CDFF83C1608600BE0DFF83C05B5
:1003F0000068401EDFF834150860200000F06AFC39
:1004000000F071FC01F023F8DFF89805006800287F
:100410001AD0DFF81C050068844215D1DFF8940675
:100420000068002807D0502080F31188BFF34F8F59
:10043000BFF36F8FFEE75FF08050DFF8A81608600B
:10044000BFF34F8FBFF36F8F10BD10B504000020B6
:10045000002C14D0DFF85C060068002807D050207C
:1004600080F31188BFF34F8FBFF36F8FFEE700F06B
:1004700012F90021200000F035FD00F037F90028C6
:1004800008D15FF08050DFF85C160860BFF34F8F33
:10049000BFF36F8F10BD10B5040000F0BBFF002C40
:1004A00003D1DFF88C040468FFE7201D00F00CFF87
:1004B000002811D1DFF82815E26A14204243885839
:1004C000002809D1DFF8140501680122E06A8240A2
:1004D0009143DFF808050160A06A002803D014F1F9
:1004E000180000F0F1FE211DDFF8900600F0C5FEB7
:1004F00000F0ADFFDFF8AC040068002805D000F084
:1005000089FF00F0F0FB00F0A2FFDFF82404006890
:1005100084422AD1DFF88C040068002816D0DFF866
:1005200094050068002807D0502080F31188BFF39D
:100530004F8FBFF36F8FFEE75FF08050DFF8A41599
:100540000860BFF34F8FBFF36F8F0EE0DFF82C060C
:100550000068DFF8D8130968884204D10020DFF86A
:10056000D013086001E000F0E5F910BD01000020A3
:10057000002907D1502080F31188BFF34F8FBFF3BC
:100580006F8FFEE74A69DFF8F4359A4208D18A6A2C
:10059000DFF848389A4203D0896A002900D1012047
:1005A000704710B50400002C07D1502080F311884B
:1005B000BFF34F8FBFF36F8FFEE7002C34D0DFF80F
:1005C0007003006884422FD000F024FF2000FFF762
:1005D000CDFF002826D0201D00F076FEDFF8FC03BA
:1005E00001680122E06A82401143DFF8F0030160F4
:1005F000211DDFF8EC23E36A1420434302EB0300E0
:1006000000F03BFEE06ADFF828130968C96A8842F7
:1006100008D35FF08050DFF8B8160860BFF34F8F43
:10062000BFF36F8F00F013FF10BDE0B5DFF8B00728
:1006300001900020009000238022DFF8A8170FF21D
:100640004150FFF7A1FD012801D101F007F8012871
:1006500016D1502080F31188BFF34F8FBFF36F8FF7
:100660005FF0FF30DFF8801708600120DFF83413F7
:1006700008600020DFF84014086000F066FE07BD47
:1006800010F1010FFBD1502080F31188BFF34F8F81
:10069000BFF36F8FFEE7DFF81C040068401CDFF833
:1006A00014140860704700210120DFF8302312681D
:1006B000904200D20121DFF878020068C06A002869
:1006C00001D0002011E0DFF818030068022801D3F0
:1006D00000200AE0002901D0002006E0DFF808072A
:1006E0000168DFF8D4030068081A704738B50024A1
:1006F0000025DFF8C0030068002807D1502080F3F0
:100700001188BFF34F8FBFF36F8FFEE700F082FEBB
:10071000DFF8A0030068401EDFF898130860DFF8D8
:1007200094030068002859D180480068002829D126
:1007300054E0DFF8A806C068C46814F1180000F09F
:10074000C3FD201D00F0C0FDDFF89002016801220A
:10075000E06A82401143DFF884020160211DDFF866
:100760008022E36A1420434302EB030000F085FD7E
:10077000E06A6F490968C96A884203D30120DFF83B
:1007800048170860DFF8540600680028D1D1002C13
:1007900001D000F0A8FADFF82C070468002C0ED076
:1007A00000F03AF8002803D00120DFF81C17086099
:1007B000641E002CF4D10020DFF808170860DFF871
:1007C00008070068002809D001255FF08050DFF895
:1007D00014130860BFF34F8FBFF36F8F00F037FE25
:1007E000280032BDDFF8D00200687047DFF8F81546
:1007F0000968B14A12688218914207D2502080F3EA
:100800001188BFF34F8FBFF36F8FFEE7AA490968C6
:100810004018A9490860704770B50025A5480068D0
:10082000002873D1A4480468641CA3480460002C09
:1008300022D1DFF8400300680068002807D050206C
:1008400080F31188BFF34F8FBFF36F8FFEE7DFF8A0
:1008500024030068DFF820130968DFF8182311600B
:10086000DFF814130860DFF864060068401CDFF846
:100870005C16086000F037FADFF86C050068844207
:1008800033D321E0301D00F01FFDB06A002803D0F3
:1008900016F1180000F018FD504801680122F06AB6
:1008A000824011434D480160311D4D4AF36A1420C6
:1008B000434302EB030000F0E0FCF06A1C490968C6
:1008C000C96A884200D30125DFF8A80200680068E1
:1008D000002815D0DFF89C020068C068C668706800
:1008E0008442CFD2DFF8001508603D491048006807
:1008F000C26A14204243885802280ED301250CE016
:100900005FF0FF30DFF8E0140860EEE7DFF8B405D1
:100910000068401CDFF8AC150860DFF8AC05006823
:10092000002800D00125280070BD00000031012002
:10093000F03001205F480068002804D00120DFF873
:10094000881508602DE00020DFF87C15086023483A
:100950000068B0FA80F1D1F11F012148142202FB96
:1009600001F28058002807D1502080F31188BFF38E
:100970004F8FBFF36F8FFEE7194A1420414302EBFC
:100980000100416849684160416810F108029142E4
:1009900002D14168496841604068C068DFF8381595
:1009A000086070470C3101201C31012010B50C008B
:1009B000002807D1502080F31188BFF34F8FBFF379
:1009C0006F8FFEE7DFF810150968183100F061FC41
:1009D0000121200000F086FA10BD0000083101203E
:1009E000102C012038B50D001400002807D150202C
:1009F00080F31188BFF34F8FBFF36F8FFEE7DFF8EF
:100A000060150968183100F038FC002C01D05FF047
:100A1000FF352100280000F065FA31BD000000001C
:100A200060300120FC30012010B5C068C468002C83
:100A300007D1502080F31188BFF34F8FBFF36F8F22
:100A4000FEE714F1180000F03FFC1A480068002887
:100A500017D1201D00F038FCDFF87804016801226E
:100A6000E06A82401143DFF86C040160211DDFF869
:100A70006C24E36A1420434302EB030000F0FDFB07
:100A800005E014F11801DFF8540300F0F6FBDFF87D
:100A900048040068C06AE16A884205D20124012046
:100AA000DFF82C14086000E0002400F01CF920009E
:100AB00010BD00002831012004310120002807D199
:100AC000502080F31188BFF34F8FBFF36F8FFEE785
:100AD000DFF8F81309680160DFF8881409684160DD
:100AE0007047000004ED00E038B504000D00002C54
:100AF00007D1502080F31188BFF34F8FBFF36F8F62
:100B0000FEE7002D07D1502080F31188BFF34F8FEF
:100B1000BFF36F8FFEE700F07DFCDFF8480401684B
:100B2000286810F1010F01D100241AE0DFF89C03BE
:100B300000682268904204D06068814201D3012499
:100B40000FE06068081A2A68904209D22868411AA2
:100B50006068411829602000FFF7B0FF002400E022
:100B6000012400F074FC200032BD0120DFF8601386
:100B700008607047F4300120F83001207430012003
:100B800080B507E0FFF78FFD022801D300F0CAFC13
:100B9000FFF7ACFD00F069F8DFF8400300680228B9
:100BA00007D35FF080504A490860BFF34F8FBFF30F
:100BB0006F8FFFF778FD0228ECD3FFF76CFD8A48B2
:100BC0000068DFF8A01309688842DBD2502080F368
:100BD0001188BFF34F8FBFF36F8FFEE70122012013
:100BE0007E490968002901D0002010E0DFF8D81202
:100BF0000968002901D0002009E0DFF86C130968BA
:100C0000DFF868331B689A1A914200D10220C0B203
:100C1000704710B5002408E0DFF8C002142101FB82
:100C200004F1084400F017FB641C202CF4D3DFF817
:100C3000400300F010FBDFF83C0300F00CFB6748BA
:100C400000F009FBDFF8300300F005FBDFF81803C4
:100C500000F001FBDFF81803DFF820130860DFF86D
:100C60001403DFF81C13086010BD10B520E0002449
:100C7000FFF73CFD002C1BD100F0CCFBDFF8F802A5
:100C8000C068C468201D00F01FFBDFF8E0020068A8
:100C9000401EDFF8D8120860DFF8E8020068401E46
:100CA000DFF8E012086000F0D2FB200000F012F83C
:100CB000DFF8D0020068002808D0FFF7ECFCDFF86E
:100CC000B80200680028D2D10124D1E710BD00008D
:100CD00004ED00E010B50400206B00F0E2F9200004
:100CE00000F0DFF910BDDFF894020068006800280A
:100CF00004D15FF0FF303C49086007E0DFF87C0278
:100D00000068C068C0684068374908607047DFF80D
:100D100078020068002801D1012007E0DFF8C00157
:100D20000068002801D1022000E00020704710B5C3
:100D30000400002C50D0E06ADFF824120968C96A68
:100D4000884249D2A069002806D4DFF8140200685E
:100D5000C06AD0F12000A0616169DFF88021E36AF8
:100D60001420434302EB0300814230D1201D00F0E8
:100D7000ABFA002811D1DFF86411E26A1420424373
:100D80008858002809D1DFF84C0101680122E06A87
:100D900082409143DFF83C010160DFF8C401006844
:100DA000C06AE062DFF82C0101680122E06A82403B
:100DB0001143DFF820010160211DDFF82021E36AE3
:100DC0001420434302EB030000F057FA04E0DFF87D
:100DD00090010068C06AE06210BD00004C30012044
:100DE000243101207C5B00082031012010B5040073
:100DF0000021002C53D0DFF8E0000068844207D0C7
:100E0000502080F31188BFF34F8FBFF36F8FFEE741
:100E1000E06C002807D1502080F31188BFF34F8F7A
:100E2000BFF36F8FFEE7E06C401EE064E06AA26CE7
:100E3000904234D0E06C002831D1201D00F044FAFB
:100E4000002811D1DFF89410E26A14204243885838
:100E5000002809D1DFF87C0001680122E06A8240A5
:100E60009143DFF870000160A06CE062E06AD0F1AD
:100E70002000A061DFF85C0001680122E06A824086
:100E80001143DFF850000160211DDFF85020E36AB4
:100E90001420434302EB030000F0EFF901210800A6
:100EA00010BD0000DFF8B8000068002805D0DFF8AA
:100EB000B0000068C16C491CC164DFF8A400006880
:100EC0007047000010310120143101201831012039
:100ED0001431012008310120F0300120102C0120B4
:100EE0002831012070B505000C001E4806681C481A
:100EF0000068001D00F0E8F9002809D118480068D2
:100F0000224909680122C06A824091431F4801605A
:100F100015F1010F08D1002C06D011480068011D01
:100F2000114800F0AAF91AE0AD190D4800684560B3
:100F3000B54207D20A480068011D1148006800F058
:100F4000A8F90CE006480068011D0C48006800F094
:100F5000A0F90F480068854201D20D48056070BDB8
:100F6000F0300120043101207430012000310120D3
:100F7000243001203830012060300120F43001207D
:100F8000F8300120FC3001200C3101200831012013
:100F90002031012070B504000025FFF77CFB8D484F
:100FA0000068002801D100F0B7F88B4800680442BF
:100FB00067D1002C15D089480068041914F0070F78
:100FC0000FD014F1080014F00704041B14F0070FED
:100FD00007D0502080F31188BFF34F8FBFF36F8F7E
:100FE000FEE7002C4DD07E480068A04249D37D49E1
:100FF0007C48066801E0310036687068A04202D281
:1010000030680028F7D173480068864239D00868F4
:10101000724A126800EB0205306808606F48006889
:1010200040007168091B884214D206EB040111F0DC
:101030000700002807D0502080F31188BFF34F8F9E
:10104000BFF36F8FFEE77068001B48607460080094
:1010500000F093F8624801687068091A60480160FE
:101060005F48006860490968884203D25C480068AC
:101070005D4908607168584800680143716000204C
:101080003060FFF733FB15F00700002807D0502031
:1010900080F31188BFF34F8FBFF36F8FFEE72800F7
:1010A00070BD10B5002836D04C490968494200EBA4
:1010B0000104606848490968084207D1502080F35C
:1010C0001188BFF34F8FBFF36F8FFEE720680028B2
:1010D00007D0502080F31188BFF34F8FBFF36F8F7D
:1010E000FEE760683C490968084214D0206800287F
:1010F00011D161683848006881436160FFF7CBFA1D
:10110000374801686068411835480160200000F0E8
:1011100034F8FFF7EBFA10BD5FF49632334911F063
:10112000070F05D0C91DC908C900521A2F488218D7
:101130002C48016000202B4B58605218274800684B
:10114000121AD208D200234802600020214B1B68EB
:10115000586000201F4B1B681860521A4A601D48D7
:10116000006808604868204A106048681C490860A8
:101170005FF000401849086070471A4A00E01268A2
:1011800011688142FBD351681144814204D15168F6
:101190004068411851601000416801441368994249
:1011A00011D111680B4B1B68994208D04368116834
:1011B0004968CB18436011680968016005E005497A
:1011C0000968016001E011680160824200D010608E
:1011D00070470000C0300120CC300120945B000833
:1011E000C4300120B0300120C830012010000020A0
:1011F00062F30F2262F31F42401810F0030308D07D
:10120000C91A1FD3DB0748BF00F8012D28BF20F8FB
:10121000022D130030B414461546103928BF20E9BA
:101220003C00FAD8490728BF20E90C0048BF40F825
:10123000042D890028BF20F8022D48BF00F8012D99
:1012400030BC7047C91818BF00F8012DCB0728BF64
:1012500000F8012D704710F1080141605FF0FF3187
:10126000816010F10801C16010F1080101610021E5
:101270000160704700210161704742684A609368CD
:101280008B6093685960916008610168491C016036
:10129000704710B40B6813F1010F01D1026907E028
:1012A00010F1080200E0526854682468A342FAD2A0
:1012B00053684B604B6899608A60516008610168AF
:1012C000491C016010BC70470169826843689A60DC
:1012D000426883685A604A68824201D182684A60E3
:1012E000002202610868401E0860086870470268B2
:1012F000531C036011707047001F5FF08073036020
:10130000001F490849000160001F0FF2150101602C
:1013100014380260001F7FF002010160203870471E
:101320007448006810F1010F07D0502080F3118835
:10133000BFF34F8FBFF36F8FFEE7502080F311880C
:10134000BFF34F8FBFF36F8FFEE7E0B56A480068C9
:101350006A49884207D1502080F31188BFF34F8F2C
:10136000BFF36F8FFEE7644800686549884207D184
:10137000502080F31188BFF34F8FBFF36F8FFEE7CC
:10138000604801780191FF21017001788DF800100B
:101390009DF8001011F050015B4A117007215B4A63
:1013A000116009E059490968491E584A11609DF8C1
:1013B000001049008DF800109DF800100906F1D4C6
:1013C000524909680902514A11605049096811F4EB
:1013D000E0614E4A1160019901704D48006850F477
:1013E00070004B4908604A48006850F07040484916
:1013F000086000F049FB00203E49086000F0BEFB99
:101400004448006850F040404249086000F0AAFBA0
:1014100000200EBD502080F31188BFF34F8FBFF323
:101420006F8F34480068401C3249086031480068BA
:1014300001280BD138480068000607D0502080F3FF
:101440001188BFF34F8FBFF36F8FFEE770472948B6
:101450000068002807D1502080F31188BFF34F8F18
:10146000BFF36F8FFEE723480068401E21490860E4
:1014700020480068002802D1002080F311887047BE
:1014800080B5502080F31188BFF34F8FBFF36F8F6B
:10149000FFF7C2F9002803D05FF080501E490860B2
:1014A000002080F3118801BDEFF3058010280FD3D1
:1014B0001A490968085C14490978C0B2884207D201
:1014C000502080F31188BFF34F8FBFF36F8FFEE77B
:1014D0000E4800681249096811F4E061884207D299
:1014E000502080F31188BFF34F8FBFF36F8FFEE75B
:1014F000704700000000002000ED00E071C20F41C5
:1015000070C20F4100E400E045310120E8300120C5
:1015100020ED00E034EF00E004ED00E0985B00080F
:101520000CED00E038B5040046480068A04201D246
:101530004448046844480068400840004249086044
:101540004248016842480568601E00FB0515414895
:101550000068A84202D23F4800682D1A72B6BFF355
:101560004F8FBFF36F8FFFF739FB002810D137483B
:101570000068394908603448006850F00100324979
:10158000086033480068401E3349086062B657E07F
:101590003148056000202D4908602B48006850F054
:1015A000010029490860002C04D0BFF34F8F30BFE1
:1015B000BFF36F8F2448006841084900224A116038
:1015C00062B6C00315D522480068401E451B1F485F
:1015D000006845191F480068854203D31C4800680D
:1015E000A84202D21A4805686D1E1B480560641E99
:1015F00011E017480068444314480068241A210089
:1016000013480068B1FBF0F4621C114800684243C3
:10161000511A1148016000200C490860FFF7FAFEDA
:101620000948006850F00100074908602000FFF7F2
:10163000DDF807480068401E07490860FFF707FF0C
:1016400031BD00BFE030012010E000E018E000E014
:10165000DC300120E430012014E000E01CB500245F
:1016600000F0D7F9DFF8F803006800280ED0DFF8A3
:10167000F40301901F20009000234FF48072DFF8E4
:10168000E8130FF2F500FEF77FFD0400002C07D1F0
:10169000502080F31188BFF34F8FBFF36F8FFEE7A9
:1016A000200016BD38B584B01D000023002807D1E6
:1016B000502080F31188BFF34F8FBFF36F8FFEE789
:1016C000DFF89C432468002C25D000910192029001
:1016D000062917DAFFF71BFB022809D1089A002315
:1016E0006946DFF87C03006800F0D9FA030012E0D5
:1016F000002300226946DFF86803006800F0CFFA93
:10170000030008E000232A006946DFF8540300685C
:1017100000F0A3FB0300180005B030BD7CB5040049
:101720000D00DFF848030068C068C668301DFFF789
:10173000CBFDF06901281AD123002A00B1690919EB
:10174000300000F089F8002811D00020009000231C
:10175000220000213000FFF7A5FF002807D150200C
:1017600080F31188BFF34F8FBFF36F8FFEE7300018
:10177000716A884773BD000080B5684600F041F883
:10178000009900F003F800F086F8F6E77CB5050054
:101790000C00FEF780FF684600F049F8060000984C
:1017A00000282BD1002C08D1AE4206D3FEF79EFFB5
:1017B00031002800FFF7B2FF22E0002C08D0DFF84C
:1017C000B00200680068002801D1012400E0002474
:1017D0002200AD1B2900DFF88802006800F062FDDE
:1017E000FEF784FF00280BD15FF08050DFF88412F1
:1017F0000860BFF34F8FBFF36F8F01E0FEF776FFF6
:1018000073BDDFF8681209680968002901D1012158
:1018100000E00021C9B201600068002805D1DFF8AE
:101820004C020068C068006800E00020704738B5CE
:101830000400FEF7D7FF0500DFF83C020068854290
:1018400004D200F0A7F80120206001E00020206011
:1018500089480560280032BD10B500244160006150
:101860008A420BD3D21A81698A4201D3012410E043
:10187000011D7F480068FFF70CFD0AE09A4203D281
:10188000994201D3012404E0011D78480068FFF764
:1018900000FD200010BD10B586B0FFE70023002238
:1018A00001A96F48006800F052FB002870D0019831
:1018B00000280ED502AA002A07D1502080F31188F3
:1018C000BFF34F8FBFF36F8FFEE7916850681268C8
:1018D000904701980028E1D4039C6069002802D059
:1018E000201DFFF7F1FC05A8FFF7A1FF01000198FB
:1018F00000280ED002280CD00BD304282ED02CD3D5
:10190000062806D03FD3082827D002D3092825D09F
:101910003DE0029B0A000299A06941182000FFF7F0
:101920009BFF0028BAD02000616A8847E06901283F
:10193000B4D1002000900023029AA06982180021EF
:101940002000FFF7AFFE0028A8D1502080F31188B7
:10195000BFF34F8FBFF36F8FFEE79FE70298A06141
:10196000A069002807D00B000A00A06941182000D8
:10197000FFF772FF92E7502080F31188BFF34F8F7B
:10198000BFF36F8FFEE72000FFF78BFB86E785E74D
:1019900006B010BD38B506E068602D61291D3348DA
:1019A0000068FFF776FC314800680068002827D0FF
:1019B0002E480068C06804682C480068C068C56884
:1019C000281DFFF781FC2800696A8847E86901281B
:1019D000E9D1A86900198442DED3002000900023D9
:1019E000220000212800FFF75DFE002800D0DAE782
:1019F000502080F31188BFF34F8FBFF36F8FFEE746
:101A00001A4800681A490968184A1160184908609C
:101A100031BD80B5FFF7FEFC1148006800281BD1DE
:101A20001648FFF718FC1648FFF715FC13480F4936
:101A3000086013480E490860002210210A2000F0B7
:101A4000F6F80749086006480068002804D00D49E8
:101A50000348006800F010FCFFF7F9FC01BD00002E
:101A60003431012038310120845B00082C31012001
:101A70003031012004ED00E03C31012088300120AC
:101A80009C3001208C5B0008134800684FF47A7189
:101A9000B0FBF1F0114908607FF07F400F49096801
:101AA000B0FBF1F00E4908600B4800680A4909686C
:101AB000B0FBF1F02D21B1FBF0F00A4908600648B7
:101AC00000684FF47A71B0FBF1F0401E06490860DF
:101AD000072006490860704708000020DC3001201C
:101AE000E0300120E430012014E000E010E000E0EC
:101AF000EFF30980BFF36F8F244B1A681EF0100FAD
:101B000008BF20ED108A20E9F04F106008B44FF0B4
:101B1000500080F31188BFF34F8FBFF36F8FFEF734
:101B200009FF4FF0000080F3118808BC19680868AD
:101B3000B0E8F04F1EF0100F08BFB0EC108A80F331
:101B40000988BFF36F8F7047104B19680868B0E8B9
:101B5000F04F80F30988BFF36F8F4FF0000080F3E0
:101B6000118870470A480068006880F3088862B6E8
:101B700061B6BFF34F8FBFF36F8F00DFDFF8140044
:101B8000016841F47001016070470000F0300120ED
:101B900008ED00E088ED00E038B504000D00002CF1
:101BA00007D1502080F31188BFF34F8FBFF36F8FA1
:101BB000FEE7FFF72FFC2168E26B206C424301EB4C
:101BC000020060600020A0632068A0602168E26BD2
:101BD000521E206C424301EB0200E0605FF0FF30D8
:101BE00084F844005FF0FF3084F84500002D12D1E6
:101BF0002069002817D014F11000FEF715FF002807
:101C000011D05FF08050DFF894160860BFF34F8F5B
:101C1000BFF36F8F07E014F11000FFF71CFB14F106
:101C20002400FFF718FBFFF712FC012032BDF8B5C6
:101C300006000D001700002E07D1502080F31188F8
:101C4000BFF34F8FBFF36F8FFEE7002D01D1002050
:101C500001E005FB06F05430FFF79CF90400002C6E
:101C600008D014F1540200943B00DBB2290030008C
:101C700000F002F82000F2BD38B51C00049D0029D8
:101C800001D12D6000E02A60E86329640121280069
:101C9000FFF782FF85F850400020A86431BDF7B5FA
:101CA00005000E001F000024002D07D1502080F3F6
:101CB0001188BFF34F8FBFF36F8FFEE7002E02D165
:101CC000286C002801D1012000E00020C0B20028CB
:101CD00007D1502080F31188BFF34F8FBFF36F8F70
:101CE000FEE7022F02D1E86B012801D1012000E0BC
:101CF0000020C0B2002807D1502080F31188BFF324
:101D00004F8FBFF36F8FFEE7FFF701F8002802D176
:101D10000298002801D1012000E00020C0B2002874
:101D200038D1502080F31188BFF34F8FBFF36F8FEE
:101D3000FEE7029800286FD0002C03D16846FEF71A
:101D4000BDFE0124FFF783FBFEF7A5FCFFF762FB56
:101D500095F9440010F1010F02D1002085F84400EC
:101D600095F9450010F1010F02D1002085F84500DA
:101D7000FFF76DFB02A96846FEF7B6FE002865D1A5
:101D8000280000F06AFA00284AD1280000F014FA6E
:101D9000FEF7ACFCFFF73EFBA86BE96B884201D372
:101DA000022FC6D13A003100280000F0ADF9A96C2D
:101DB00000290FD03900280000F099FA002827D018
:101DC0005FF08050DFF8D4140860BFF34F8FBFF38B
:101DD0006F8F1DE0696A00290FD015F12400FEF70E
:101DE00023FE002814D05FF08050DFF8B0140860A4
:101DF000BFF34F8FBFF36F8F0AE0002808D05FF06A
:101E00008050DFF898140860BFF34F8FBFF36F8FD7
:101E1000FFF71DFB01201FE0FFF719FB00201BE06F
:101E2000029915F11000FEF7C1FD280000F0C4F979
:101E3000FEF75CFC0028ADD15FF08050DFF85C1449
:101E40000860BFF34F8FBFF36F8FA3E7280000F048
:101E5000B3F9FEF74BFC0020FEBD2DE9F843050069
:101E60000E0014001F00002D07D1502080F31188B0
:101E7000BFF34F8FBFF36F8FFEE7002E02D1286CA8
:101E8000002801D1012000E00020C0B2002807D1C5
:101E9000502080F31188BFF34F8FBFF36F8FFEE7A1
:101EA000022F02D1E86B012801D1012000E00020BF
:101EB000C0B2002807D1502080F31188BFF34F8FA4
:101EC000BFF36F8FFEE7FFF7EFFAEFF311885020B3
:101ED00080F31188BFF34F8FBFF36F8FA86BE96B4F
:101EE000884201D3022F2DD195F945903A00310057
:101EF000280000F009F94FFA89F919F1010F1BD1F7
:101F0000A86C00280AD03900280000F0F0F9002859
:101F100016D0002C14D00120206011E0686A00283F
:101F20000ED015F12400FEF77FFD002808D0002C0C
:101F300006D00120206003E019F1010985F84590E1
:101F4000012000E0002088F31188BDE8F2832DE92C
:101F5000F64182B0070088461E000024002F07D1FA
:101F6000502080F31188BFF34F8FBFF36F8FFEE7D0
:101F7000B8F1000F02D1386C002801D1012000E037
:101F80000020C0B2002807D1502080F31188BFF391
:101F90004F8FBFF36F8FFEE7FEF7B9FE002802D127
:101FA0000398002801D1012000E00020C0B20028E1
:101FB0000CD1502080F31188BFF34F8FBFF36F8F88
:101FC000FEE7380000F0F8F8FEF790FBFFF722FA82
:101FD000BD6B002D06D1039800283CD1FFF737FADE
:101FE00000208EE0FC684146380000F0D0F8002E5A
:101FF0001AD16D1EBD633868002802D1FEF752FF6A
:1020000078603869002822D017F11000FEF70CFD27
:1020100000281CD05FF08050DFF880120860BFF30A
:102020004F8FBFF36F8F12E0FC60786A00280ED0EC
:1020300017F12400FEF7F8FC002808D05FF080506C
:10204000DFF858120860BFF34F8FBFF36F8FFFF7B1
:10205000FEF9012055E0002C03D16846FEF72EFD65
:102060000124FFF7F4F9FEF716FBFFF7D3F997F910
:10207000440010F1010F02D1002087F8440097F9C5
:10208000450010F1010F02D1002087F84500FFF74D
:10209000DEF903A96846FEF727FD002825D13800A0
:1020A00000F0CDF800288CD03868002806D1FFF762
:1020B000B1F97868FEF73BFEFFF7C9F9039917F10C
:1020C0002400FEF773FC380000F076F8FEF70EFBF4
:1020D00000287FF47BAF5FF08050DFF8C01108600C
:1020E000BFF34F8FBFF36F8F70E7380000F064F8D5
:1020F000FEF7FCFA380000F0A2F800283FF466AFC3
:10210000002004B0BDE8F0812DE9F0410600150083
:102110000027B46B306C002809D13068002831D119
:102120007068FEF763FE0700002070602AE0002D53
:102130000FD1326CB568280000F014F9B068316C2A
:102140000844B060B068716888421BD33068B060E2
:1021500018E0326CD6F80C80404600F003F9F068C5
:10216000316C49420844F060F0683168884204D21A
:102170007068316C49420844F060022D02D1002C95
:1021800000D0641E641CB4633800BDE8F08110B553
:102190000C00016C00290ED0C168026C1144C160B2
:1021A000C1684268914201D30168C160026CC16894
:1021B000200000F0D7F810BD38B50400FFF72AF969
:1021C00094F9455011E00021200000F090F800281B
:1021D0000AD0FEF7CAFC07E014F12400FEF724FC45
:1021E000002801D0FEF7C1FC6D1E6DB2012D05DB8C
:1021F000A06C0028E7D1606A0028EDD15FF0FF30C5
:1022000084F84500FFF723F9FFF704F994F94450E7
:1022100008E014F11000FEF707FC002801D0FEF7DB
:10222000A4FC6D1E6DB2012D02DB20690028F0D1E7
:102230005FF0FF3084F84400FFF709F931BD10B5B5
:102240000400FFF7E7F8A06B002801D1012400E0AB
:102250000024FFF7FCF8200010BD10B50400FFF7C4
:10226000D9F8A06BE16B884201D1012400E0002481
:10227000FFF7EDF8200010BD002300E05B1C082BE9
:102280000BD2074A52F83320002AF7D1044A42F809
:102290003310034901EBC3014860704704ED00E0CF
:1022A000E42F012070B504000D001600FFF7B2F80E
:1022B00094F9440010F1010F02D1002084F8440089
:1022C00094F9450010F1010F02D1002084F8450077
:1022D000FFF7BDF8A06B002805D13200290014F1EA
:1022E0002400FEF77FFB2000FFF766FF70BD71B58D
:1022F00081B00A000198846C0025002C07D1502081
:1023000080F31188BFF34F8FBFF36F8FFEE7A06B91
:10231000E16B884207D3502080F31188BFF34F8FC1
:10232000BFF36F8FFEE7A06BE16B884218D294F980
:10233000456001A92000FFF7E7FE050076B216F11F
:10234000010F0AD1606A00280AD014F12400FEF7B8
:102350006BFB002804D0012502E0761C84F8456060
:10236000280076BD62B38B0708D0521E11F8013BDE
:1023700000F8013B00F024808B07F6D1830740F082
:10238000208000BF103A07D330B4B1E83810103ABB
:10239000A0E83810F9D230BC530724BFB1E80810C8
:1023A000A0E8081044BF51F8043B40F8043BD207B2
:1023B00024BF31F8022B20F8022B44BF0B780370A6
:1023C0007047121F17D35B0009D151F8043B20F866
:1023D000023B1B0C121F20F8023BF6D20BE051F817
:1023E000043B00F8013B1B0A20F8023B1B0C121FA8
:1023F00000F8013BF3D238BF121D521E24BF11F862
:10240000013B00F8013BF8D8704700002DE9F0438C
:102410009FB00FF28419269CDFF8CC8A02918DF8C8
:102420003B4000210B914FF0FF37044616461D46F6
:102430000AE016F8011B0298A0470028029000F05D
:1024400099800B98401C0B90307850B12528F0D122
:1024500000200021059006910790089109900A91AB
:1024600003E00B989CE041F0010116F8010F2028D1
:10247000F9D023280CD02B2804D02D2805D03028C3
:1024800009D079E041F00201EFE741F00401ECE707
:1024900041F00801E9E741F01001E6E700200D9066
:1024A00009E00D98404505DA00EB800302EB43029A
:1024B000303A0D92761C3278A2F130000A28F0D31F
:1024C00032782E2A18BF0C9723D116F8010F2A282C
:1024D00007D128682860761C50F8042B28600C92DD
:1024E00017E02D280CBF16F8010B002000220C92DB
:1024F0000AE040B90C9A424505DA02EB820203EB8E
:102500004203303B0C93761C3378A3F130020A2A45
:10251000EFD3ADF838104846317800F065FE08B1C9
:1025200016F8010B8DF83A009DF83A00682804BFB0
:102530003178682903D162208DF83A0007E06C28D1
:1025400004BF30786C2803D171218DF83A10761CC5
:1025500010A804902A4616F8013B6946204600F070
:102560005FF838B910AA6946204600F08BF90028B8
:102570007FF56AAF384613E02A288FD12A682A608F
:1025800052F8040B2A6000280D9003D540420D90AC
:1025900041F00401761C93E7686A6C747A4C000081
:1025A0001FB0BDE8F083622820D0682811D06A28C7
:1025B00003D06C2827D0712825D10868C01D20F0D1
:1025C00007000860D0E9002308300860194610466B
:1025D0007047002A0A680A60106803D0121D0A605A
:1025E00000B217E0121D0A6080B217E0002A0A68E4
:1025F0000A60106803D0121D0A6040B20AE0121D82
:102600000A60C0B20AE0002A0A680A60106803D0B3
:10261000121D0A60C1177047121D0A600021704721
:1026200070B51C460D46B4F125002E69114600F028
:1026300017811C386AD0001F022867D9133843D08D
:10264000093863D0801E16D0401E1ED0401E0228BE
:102650005CD9001F19D0401F00F08380401E33D08A
:10266000401E00F0CD80C01E00F0D880801E2BD010
:10267000C01E29D0FAE06869421C6A610A680A60D3
:1026800052F8043B0A603354FAE095F83A0001220C
:10269000FFF789FFC5E900010023994204DA686960
:1026A000411C69612D210DE0288F810704D56869DF
:1026B000411C69612B2105E0C00722D56869411CD6
:1026C0006961202131541CE095F83A000022FFF79F
:1026D0006AFFC5E9000195F83800010711D5D5E971
:1026E00000230020834208BF82420AD044F0200029
:1026F000782806D1686930213154401C411C696139
:102700003454214668693044E86083E00868C01D9D
:1027100020F007000860D0E9002308300860C5E910
:102720000023D5E90001C80F04D06869411C696124
:102730002D210DE0288F810704D56869411C69614E
:102740002B2105E0C00704D56869411C696120217F
:10275000315468693044E8602146284600F0C4F9E5
:102760008EE005F13A02507820B14FF0FF340FF6B9
:1027700018205EE01078622808D0682824D06A28E3
:1027800012D06C282ED071280ED02BE00A680A6077
:1027900052F8040B0A6020B94FF0FF340FF6002006
:1027A00047E0E96A01706BE00A680A6052F8040BBE
:1027B0000A6020B94FF0FF340FF6E41039E0EA6AFE
:1027C000D317C0E900235BE00A680A6052F8040BE3
:1027D0000A6020B94FF0FF340FF6C41029E0E96A0F
:1027E00001804DE00A680A6052F8040B0A6020B9C3
:1027F0004FF0FF340FF6A8101BE0E96A01603FE0DC
:102800000A680A6052F8040B0A600021C5E9000159
:10281000EE607821284600F0BBF831E008680860D7
:1028200050F8044B0860EC603CB94FF0FF340FF6F1
:10283000881000F0E5FC201A70BD2E6B002E04D528
:10284000204600F0FFFC044608E032460021204606
:1028500000F014FD002814BF041B3446AC610FE0E7
:102860006869411C69612521315409E06969481C86
:10287000686125227254210002D0411C69613454E0
:10288000002070BD2DE9FC410F460646796B786942
:10289000BC6A091A386A091AB869091A786A091AE1
:1028A000F869091A97F838000C1B410790460FD4B5
:1028B0002021002C8DF800100ADD254601236A46F0
:1028C0003946304600F049FC00285DD16D1EF5D137
:1028D0007B6942463946304600F03FFC002853D120
:1028E00030208DF800003D6A002D09DD01236A4685
:1028F0003946304600F031FC002845D16D1EF5D137
:10290000BB69FA683946304600F027FC00283BD105
:1029100030208DF800007D6A002D08DD01236A4615
:102920003946304600F019FC70BB6D1EF6D1F868D0
:10293000B969FB6942183946304600F00EFC18BBF5
:1029400030208DF80000BD6A002D08DD01236A46A5
:102950003946304600F001FCB0B96D1EF6D197F84B
:10296000380041070DD52021002C8DF8001008DD1E
:1029700001236A463946304600F0EFFB20B9641E59
:10298000F6D10020BDE8F6814FF0FF30BDE8F681BA
:102990002DE9FC4704468A462569BAF16F0F08BF46
:1029A000082605D04AF02001782914BF0A261026EF
:1029B0003C27D4E90023BAF1640F18BFBAF1690FBC
:1029C0009046994606D100218B4203DAD8F10008DF
:1029D00069EB49090020814508BF80451FD1206B64
:1029E000E8B9082E4CD194F83800010748D53020BA
:1029F0003B2785F83B0043E000280ED594F83800CB
:102A000000F01400102808D1626B6069121A206A65
:102A1000121A511A0029C8BF2162BDE8F3878DF848
:102A200000A0404649463246F31700F053FC3032CE
:102A3000D2B27F1E3A2A019704DB9DF80000A0F174
:102A400051018A18EA55404649463246F31700F0CC
:102A500041FC804689460020814508BF804503D05F
:102A6000E068E9198842DCD3082E09D194F83800CF
:102A7000010705D5E95D302902D07F1E3020E855D9
:102A8000C7F13C01A161E819E060206B8142B3DA33
:102A9000411A21624FF6EF70218F01402187BDE876
:102AA000F3872DE9D04306460F4614464FF0000841
:102AB000DFF8389412E0E00707D542464B4630462F
:102AC000394600F01FFD06460F464046494642463D
:102AD0004B4600F017FD641080468946002CEAD171
:102AE00030463946BDE8D0832DE9F34F054641F025
:102AF00020048DB0D5E90089612C02AE09D0286B85
:102B0000002848BF062003D408BF672C01D101204C
:102B10002863D5E9002358004015401C0ED1190345
:102B20000CD00320A8619DF8380061381A2802D221
:102B30000FF2A06111E00FF2A0610EE05800401505
:102B4000401C0FD119030DD10320A8619DF8380056
:102B500061381A2814D30FF28861E8680322FFF75E
:102B600001FCD3E1194621F00043B3F5801F104664
:102B70000DD20027BB4208BFBA42019703D111E032
:102B80000FF25861E9E701AA00F08EFD0AE0DFF8D4
:102B9000607307EB1352DFF85C3301921940DFF8E2
:102BA00058331943C5E90001612C0ED1E868302182
:102BB0000170811CE9609DF8381061290CBF7821F3
:102BC000582141706869801C6861D5E900AB2BF021
:102BD000004300202AF00002834204BF8242002307
:102BE00000F05A81612C40F0A980286B00284CBF6E
:102BF0002120401C00904046009F7F1C4946002237
:102C0000002300F089FDD94601988DF8082038BFCF
:102C100089F00049001F0190002FD0460DF10900F6
:102C200040F3498140F2FF71DFF8D0B20C910646C3
:102C3000404649460022002300F086FD80F03A819C
:102C40004800400D00F11C0210D0002A0EDD0C9847
:102C5000824205DB09F0004040EA0B01002013E04E
:102C6000A448084040EA025140460DE029F00043E4
:102C7000002028F00002834208BF82420FBF404676
:102C80001C22404600F078FD8046894600F012FE86
:102C9000FF1F002F044609DD00F02AFE02460B4606
:102CA0004046494600F036FE80468946F01D072121
:102CB00004E004F00F0200F8012D2411002C01DDC6
:102CC000491EF6D5491E5CBF002200F8012DF9D53A
:102CD000ECE00020194602AA0A4400E05B1E12F84C
:102CE0000149491E8442F9D00F2804D10DF1090091
:102CF000425C521C4254002904D50198001D02AECA
:102D00005B1C0190591E12D49DF838007218A0F176
:102D10003A04177830375FFA87F8B8F1390FC8BF2F
:102D2000A044491E02F80189F3D58DF83800286BBC
:102D3000002840F1B080591E2963ACE04046494666
:102D40000022002300F0E8FC019938BF89F0004917
:102D500047F2975041436A4A91FBF2F20192D2F155
:102D6000070204DD40464946FFF79BFE0AE0524257
:102D700000206449FFF795FE02460B46404649464F
:102D800000F03AFE8046662C286BDFF87CB106BF67
:102D9000019F0A3706273F18142FC8BF1427302079
:102DA0008DF8080089460DF1090000E03046002F3B
:102DB00034DD06464046494600F042FF01460A46D9
:102DC00006F1080304200A26B2FBF6F606EB860E8F
:102DD000A2EB4E02303203F8012C0A22B6FBF2F2CB
:102DE00002EB820EA6EB4E063036401E03F8026D53
:102DF000E9D1083F002F03F10806D7DD084600F0AF
:102E000033FF02460B464046494600F083FD002250
:102E10005B4600F077FB80468946CBE70DF1090160
:102E2000401A0DF1090604E00199491E401E019166
:102E3000761C31783029F7D0662C02D10199491CD3
:102E400003E0652C0CBF012100212B6BCB189842AD
:102E5000B8BF431E002B1ED4834204DAF05C352831
:102E6000A8BF392000DA30201946721E02EB010893
:102E700000E05B1E18F80199491E8145F9D03928F8
:102E800002D1705C401C7054002904D50198401C8C
:102E900016465B1C0190019800B200901BB29DF891
:102EA00038103246284600F034F82FE0C61D002FB7
:102EB0003FF7BEAE30460DF10901401A00990346B6
:102EC0008842C8BF0B46002B0DF109063FF52FAF16
:102ED0008342BFF6FEAE0DF10900C05C07287FF704
:102EE000F8AE0F20F6E60000CBCCCC0C000024405E
:102EF00002FCFFFFFFFF0F800000E03F0000F07FBB
:102F0000A08601000000F03F84D797410FB0BDE8D4
:102F1000F08F2DE9FC46064683B01C46376B002C2B
:102F2000914602DC01240FF2BC298A46BDF93050DB
:102F30004AF02000662808BF6D1C12D0672878D19F
:102F400015F1040F7BDBBD4279DA96F838006D1C71
:102F5000010702D4BC42B8BF27462DB27F1B48BF31
:102F600000272DB2F068B169002D23DC4A1C302304
:102F70004354002F03DC96F83800010703D5F068AE
:102F80002E218154521CEF42B8BF7D422DB26842BF
:102F9000ED19A542B8BF2C46B261706224B2F4614B
:102FA000F068B369224649461844FFF7DBF9281B4D
:102FB000B062BBE02A469442084416DA22464946EB
:102FC000FFF7D0F9B0692018B0612C1B002F746294
:102FD00003DC96F838100A0705D5F1682E220A544A
:102FE000F069401CF061B762A0E04946FFF7BAF90A
:102FF000B0692818641B002F03DC96F838100A0704
:1030000003D5F1682E220A54401CB06124B2A742B5
:10301000B8BF3C46F068B36924B2224609EB05010B
:103020001844FFF79FF9B0692018B0613C1B746227
:103030007CE0BAF1610F14D14FF0700A16E0BC4287
:1030400004DA96F838100A0758BF27467F1E48BF93
:103050000027BAF1670F14BF4FF0450A4FF0650A19
:1030600004E0BAF1410F08BF4FF0500AB169F368AC
:10307000481CB061002F19F8012B5A5403DC96F854
:1030800038100A0717D5F268431CB3612E2111547A
:10309000002F10DD641E24B2A742B8BF3C46F06882
:1030A00024B2224649461844FFF75CF9B06920185B
:1030B000B0613F1B7762F068B1690844002D80F869
:1030C00000A003D42B214170811C03E02D2141700D
:1030D0006D42811C00206A460AE02B460A2493FBBD
:1030E000F4F505EB8504A3EB440302F8013B401C17
:1030F0002DB2002DF1DC012806DC4AF02002652A01
:1031000004BF302201F8012B48B9302001F8010B2F
:1031100007E0401E1DF80020303201F8012B002886
:10312000F7DCF068B2691044091AF16196F83800CA
:1031300000F0140010280DD17169B0694118706A4F
:103140004118F0694118B06A4118706B8142BCBFE8
:10315000411A316205B0BDE8F086F8B505460E4665
:1031600017461C46002074B117F8011BB068A84729
:10317000B06030B1F06A401CF0620020641EF3D1F0
:10318000F2BD4FF0FF30F2BD7072696E74665F730E
:103190003A20256E20646973616C6C6F77656400FA
:1031A0007072696E74663A2062616420256E2061D7
:1031B0007267756D656E74007072696E74665F73A8
:1031C0003A2062616420257320617267756D656EB7
:1031D000740000006E616E004E414E00696E660024
:1031E000494E4600300000000278C9B28A421AB146
:1031F0001CBF10F8012FF9E718BF0020704700002E
:1032000080B508B90FF21C0005490B681BB12222DA
:103210000021984701E000F034FD222002BD0000AB
:1032200040310120636F6E73747261696E7420683F
:10323000616E646C65723A20626164206D657373BF
:103240006167650000F10103810704D010F8011BDC
:1032500089B18107FAD10268B2F10131914311F0CD
:10326000803F04BF50F8042FF6E710F8011B11B19E
:1032700010F8011BFBE7C01A70470000C9B28307B2
:1032800006D0521E22D310F8013B9942F7D11FE01D
:10329000083A13D302F1040241EA012141EA014153
:1032A00050F8043B121F21BF4B40A3F1013C2CEA14
:1032B000030C1CF0803FF3D0C9B2001F083210F895
:1032C000013B521E28BF91EA030FF8D818BF012016
:1032D000401E7047B3BBD9B1B2F5803F7DD2022A00
:1032E0001ED98C46B1FBF2F102FB11C31B0443EA69
:1032F0001043B3FBF2FC02FB1C3380B240EA0343F1
:10330000B3FBF2F002FB103240EA0C40002370479E
:10331000022A05D98446B0FBF2F002FB10C27047C6
:103320004AB105D100F0010249085FEA3000704758
:1033300000220023704700F0A7BC0B000200002110
:1033400000207047904271EB030CF6D3B3F5803F39
:103350002FD2F0B5B3FA83F7B1FA81F4A7F10F0ECB
:103360003D1B5340CEF1200602FA0EF2F3415340CA
:10337000B5F10F0746D80F3C2C444140C4F120065C
:10338000A040F1414140B1FBF3F603FB1611A2FB53
:103390000645001BA94102D2761E8018594180EAD9
:1033A000010221FA0EF362FA0EF200215A40304671
:1033B000F0BD30B4B1FBF3FC03FB1C11A2FB0C45C8
:1033C000001BA94103D2ACF1010C8018594130BC5B
:1033D00002460B46604600217047B2F1807F65D3FC
:1033E000F0B5B2FA82F7B1FA81F4C7F10F063D1BCE
:1033F00022FA06F307F1110EF24120355A40B5F1D9
:103400000F07B8D94140C4F12006A040F141414026
:10341000B1FBF3FC03FB1C11A2FB0C45001BA941F3
:1034200003D2BCF1010C801859410F2F12D30F3F6A
:10343000C90341EA5041B1FBF3F603FB1611A2FBAD
:103440000645D4EBC030A94102D2761E80185941FE
:1034500046EACC3C07B34140C7F12006B840F141F1
:103460004140B1FBF3F603FB1611A2FB0645001B1E
:10347000A94102D2761E8018594180EA010221FA40
:103480000EF3C7F1200462FA0EF20CFA07F05A406C
:103490002CFA04F13043F0BD80EA010221FA0EF368
:1034A000002162FA0EF260465A40F0BD8C46B1FB34
:1034B000F2F102FB11C31B0243EA1063B3FBF2FCFF
:1034C00002FB1C331B024CEA002043EA1063B3FBEF
:1034D000F2FC02FB1C331B024CEA002043EA10639F
:1034E000B3FBF2FC02FB1C331B024CEA002043EA54
:1034F0001063B3FBF2FC02FB1C324CEA00200023F9
:1035000070470000B0B581EA030C0CF0004C40F2AB
:10351000FF7515EA11541DBF15EA1357AC42AF42AF
:1035200039E0E41923EA455343F48013C90241F01A
:10353000004141EA505EC7021100A7FB02020028C9
:103540004FF00000EEFB01204FF00001E3FB0721EC
:1035500018BF42F00102401800214941E3FB0E016F
:10356000A4F580640F0302D252004041494154F156
:1035700001046CDD470872F1004250F1000051EB8C
:103580000451A1F580115CBF41EA0C01B0BD4CEAC9
:1035900005510020B0BD05EA1357AC4214BFAF423D
:1035A00041E050EA410E1CBF52EA430E02E0614680
:1035B0000020B0BD24423C441BD15FEA070EF6D088
:1035C000090302BF01460020AEF1140EB1FA81F7E3
:1035D000AEEB070401FA07FE0C37C7F1200100FA31
:1035E00007F7C8404EEA000E23EA455343F4801320
:1035F000A2E733F00043B3FA83F704BFB2FA82FEC6
:1036000077440B3FE41BB7F1200E2FBF02FA0EF3F5
:10361000BB40C7F1200E22FA0EFE38BF43EA0E036C
:10362000BA40641C82E750EA410E14BF52EA430ECE
:103630006FF000014FF4001717EB430F8ABF1946D4
:1036400017EB410FB5E74CEA05510020B0BDD4F1AE
:103650000104B4F120070FDAC4F12007520828BF93
:1036600042F0010210FA07F501FA07F7E1BF2A4319
:10367000E0403843E1400FE0352C98DCC7F12004EE
:1036800052EA400220FA07F218BF42F0010231FA72
:1036900007F0A1400A43002172F1004250F10000FE
:1036A00051EB0C01B0BD000010B5144600F002F85B
:1036B000226010BDC1F30A5343B14A0012F5001F46
:1036C00028D2A3F2FE32A1EB0251704750EA410C1E
:1036D00020D001F0004C31EA0C01B1FA81F204BFB4
:1036E000B0FA80F3D2180B3AB2F120032CBF00FAE3
:1036F00003F1914041EA0C013EBFC2F1200C20FAD7
:103700000CF319439040524240F2FD33D21A01EBC0
:1037100003517047002270474FF4001C1CEB410F0F
:1037200094BF1CEB430F09E041EA030C50EA4C0C38
:1037300052EA0C0C03D2994208BF9042704714BF62
:103740008B428242704700004FF4001C1CEB410F7B
:1037500094BF1CEB430F09E041EA030C50EA4C0C08
:1037600052EA0C0C03D28B4208BF8242704714BF4E
:103770009942904270470000124254D440F2FF7CBC
:103780001CEA11530FD0634531D09B1863453CBFF1
:1037900001EB0251704701F0004141EA0C51002059
:1037A000AFF30080704750EA410320D001F0004C95
:1037B00091EA0C011CD0B1FA81F30B3B9A420DD96E
:1037C000D21A994051EA0C01C3F1200C20FA0CFCEA
:1037D00061449840531C40F2FF7CD7E7914041EA96
:1037E0000C01C2F1200C20FA0CF3194390407047F1
:1037F000B0FA80F31533202BE0D3202AEED3203A01
:10380000203B9A4209D9D21A00FA03F141EA0C018D
:103810000020531C40F2FF7CB8E700FA02F141EAB5
:103820000C0100207047524240F2FF7C1CEA115309
:103830000DD06345DBD0B2EB030C3CBFA1EB0251D2
:1038400070470CF1010221EA035141F4801150EA62
:10385000410CCCD001F0004C352A27DC30B481EA91
:103860000C01B2F1200309DAC2F12003044601FA87
:1038700003F5D0402843D1409C400CE0C3F1200226
:10388000450020FA03F418BF44F0010421FA03F0C4
:1038900091400C43002174F1004550F1000051EBC0
:1038A0000C01244230BC7FF47BAF7047614600209E
:1038B00076E70000C1F30A5340F2FE329B1A14DD92
:1038C000D3F120034FEAE17208DDC90241EA505109
:1038D00041F00040D84080185040704703F2E1307A
:1038E00010B1D24382F000407047002070470000C2
:1038F000C11768B14840401AB0FA80F29040D21C1B
:10390000C907C2F5846241EA025202EBD0214005A8
:103910007047000070B44FF0004591EA030F40F18A
:10392000B5816B40841A71EB030603D2001BB141D1
:10393000121973414FF4001C1CEB410F34BF7CEB98
:10394000430442E00C0DA4EB1356352E4FDC45EA40
:10395000C323DB0A45EAC121C912B6F120050DDDFA
:1039600063FA05F6EB4086EA0305124218BF45F0FC
:103970000105C01851F100010CD213E062FA06F5FE
:10398000F2405540F3415A40B340F3405A4080184A
:10399000594107D349085FEA30005FEA350528BF7F
:1039A00045F0010501F58011420875F1004250F122
:1039B000000041EB04514E0016F5001F70BC38BFEB
:1039C00070470020090D090570471CEB410F10D20C
:1039D00052EA43060BD0BCEB410F05D80C0DAB43AC
:1039E000661E342EB6DD02E0AB438018594170BC30
:1039F000704770BC70470000F0B540F2FF7581EA77
:103A0000030C0CF0004C15EA11541DBF15EA1357B6
:103A1000AC42AF42E5E0BC41C1F31301C3F3130371
:103A2000801A994143F4801304D2641E4000494136
:103A300080185941C90241EA5051B1FBF3F603FB2A
:103A40001611A2FB0675D7EBC020A94102D2761E43
:103A500080185941C90241EA5051B1FBF3FE03FB02
:103A60001E11A2FB0E75D7EBC020A94103D2AEF107
:103A7000010E80185941890241EA9051760546EAC3
:103A80008E2EB1FBF3F603FB1611A2FB0675D7EBE6
:103A90008020A94102D2761E80185941C90241EA0C
:103AA00050514EEA060EB1FBF3F603FB1611A2FBD2
:103AB0000675D7EBC020A94102D2761E8018594165
:103AC000C90241EA5051B1FBF3F703FB1711A2FB06
:103AD0000735D3EBC020A94167F100070CBF0042B6
:103AE00047F0010766F3D5274FEA1E31B80814F5F1
:103AF000806412DDBD0775F1004250EB0E5051EBB2
:103B0000045111F5801F5CBF41EA0C01F0BD4CF07F
:103B10007F6141F0E0410020F0BDBD076D0840EA43
:103B20000E5041F48011D4F10104B4F120060ADAF8
:103B3000C4F120060200E04001FA06F3E140184318
:103B4000B24015430EE0342C13DCC6F1200445EAE4
:103B500040056D0820FA06F2154321FA06F0A1404F
:103B60000D43002175F1004250F1000051EB0C01B2
:103B7000F0BD00205FEA0C01F0BDCFB992185B41A7
:103B8000B3FA83F704BFB2FA82F6BF190B3FB7F15D
:103B900020062FBF02FA06F3BB40C7F1200622FA27
:103BA00006F638BF3343BA401CB1E419641E33E74C
:103BB0007F4231F00041B1FA81F404BFB0FA80F6DF
:103BC000A4190B3CB4F120062FBF00FA06F1A14066
:103BD000C4F1200620FA06F638BF3143A0403C1B52
:103BE0001AE7AC421ABF05EA1357AF4212E050EA97
:103BF00041061CBF52EA4306BFE750EA4107304680
:103C000061461CBF41EA0551F0BD52EA430C08BFB2
:103C1000C143F0BD00204FF4001616EB410F98BFD2
:103C200016EB430F08BF16EB410F24BFC14305E05D
:103C300016EB430F0CBF61464CEA0551F0BD000086
:103C4000400D491840EA81200CD2490DA1F5806150
:103C5000491C40F0004005DBD1F11F0154BFC840B2
:103C6000C017704700207047014648B1B0FA80F194
:103C70008840C91CC1F58461090501EBD0214005CC
:103C80007047012000F0B6B870470000841A71EB4D
:103C9000030604D26E40001BB141121973414FF468
:103CA000001C1CEB410F34BF7CEB430682E00C0D83
:103CB000A4EB1356362E7BDC012E45EAC32341DCF0
:103CC00043EA525312BFD20292025B08240545EA2E
:103CD000C12141EA5051D2EBC020994125D407D1EE
:103CE000B0FA80F610FA06F162D00020203608E023
:103CF000B1FA81F6B140C6F1200220FA02F2114376
:103D0000B0404FEAF474B4EB465434F001064FEA85
:103D100074040AD8D6F50016760D04F00044F0407D
:103D200061FA06F25040F1404840C00A40EA415072
:103D300021F0004128BF5FEA500550F1000044EB3C
:103D4000D12135E0DB0A45EAC121C90AB6F12005D7
:103D50000EDD42EA0242120CC5F1200603FA06F615
:103D6000EB4042EA06056D42984161F100010DE029
:103D700062FA06F5F240554063FA06FC82EA0C024C
:103D8000F3405A406D42904161EB030111F4801FF2
:103D900005D1641E620502D06D004041494121F405
:103DA0008011430875F1004350F1000041EB0451CC
:103DB00070BC70471CEB410F15D223F0004352EA50
:103DC00043060BD04FEA4C0CBCEB410F04D80C0D52
:103DD000661E342EB7DDEBE7801A994150EA4106A2
:103DE00008BF0021E4E708BF1CEB430F28BF6FF0BA
:103DF0000001DDE780B5AFF30080024A1100182012
:103E0000ABBEFBE72600020010B50400002C01D178
:103E1000012033E0A0690028FFD194F83D0000287C
:103E200005D1002084F83C00200000F007FB24208E
:103E300084F83D002068C06830F400502168C860F4
:103E4000200000F0F2F92068006930F49040216809
:103E500008612068406930F02A00216848612068C4
:103E6000C06850F400502168C86000202064202001
:103E700084F83D00202084F83E00002010BD38B5B5
:103E80000400206801682068C26820684369002037
:103E9000002011F00F00002807D18D0605D59506EA
:103EA00003D5200000F05DF9F6E0002872D0D807B5
:103EB00002D412F4907F6DD011F00100C0B200283E
:103EC00005D0D00503D5206C50F0010020644807D0
:103ED00008D513F00100C0B2002803D0206C50F0C8
:103EE00002002064880708D513F00100C0B2002842
:103EF00003D0206C50F00400206408070AD5900617
:103F000004D413F00103DBB2002B03D0206C50F07B
:103F100008002064206C00283BD0880604D5900659
:103F200002D5200000F01DF920684069800910F0DA
:103F30000100216C090701D4002825D0200000F0E1
:103F4000ACF82068406940061AD52068406930F016
:103F5000400021684861A06B00280DD00FF271105D
:103F6000A16B0865A06B00F06FFB002811D0A06B5F
:103F7000A16B096D88470CE0200000F078FB08E099
:103F8000200000F074FB04E0200000F070FB002033
:103F9000206481E0206B01286ED1C8066CD5D00664
:103FA0006AD5002000902068006800902068406872
:103FB0000090009820684069400638D5A06B0068E2
:103FC000406880B2002831D00100A28D89B29142B0
:103FD0002CD2E085A06BC069B0F5807F1FD020682F
:103FE000C06830F480702168C8602068406940086B
:103FF0004000216848612068406930F04000216835
:104000004861202084F83E00002020632068C068BA
:1040100030F010002168C860A06B00F0C7FAA18DD5
:10402000E08D091A89B2200000F022FB34E0A08D57
:10403000E18D411AE08D00281DD089B200291AD0E7
:104040002068C06830F490702268D06020684069B1
:104050004008400022685061202084F83E00002083
:1040600020632068C06830F010002268D06089B2F8
:10407000200000F0FDFA0FE0080605D5100603D574
:10408000200000F02FF807E0480605D5500603D5BC
:10409000200000F058F8FFE731BD0168C96831F42D
:1040A00090710268D1600168496949084900026855
:1040B0005161016B012905D10168C96831F0100116
:1040C0000268D160202180F83E1000210163704712
:1040D00080B5806B0021C1850021C18400F0C7FA42
:1040E00001BD000090F83D1021292AD18168B1F569
:1040F000805F0CD10169002909D1016A0988C905CD
:10410000C90D02685160016A891C016205E0016AFB
:104110004A1C0262097802685160C18C491EC18440
:1041200089B200290BD10168C96831F080010268A9
:10413000D1600168C96851F040010068C160002089
:1041400000E00220704780B50168C96831F0400185
:104150000268D160202180F83D1000F08AFA00202A
:1041600002BD10B5040094F83E0022285BD1A0687F
:10417000B0F5805F0DD1206900280AD10020A06A27
:1041800021684968C905C90D0180A06A801CA06228
:1041900017E0A16A0020A068B0F5805F05D0A06894
:1041A000002806D12069002803D1206840680870E3
:1041B00004E02068406810F07F000870A06A401C8E
:1041C000A062E08D401EE08580B2002829D12068E1
:1041D000C06830F020002168C8602068C06830F4F2
:1041E00080702168C86020684069400840002168EC
:1041F0004861202084F83E00206B01280AD1206805
:10420000C06830F010002168C860A18D200000F067
:104210002FFA02E0200000F02DFA00202063002099
:1042200002E0002000E0022010BDF8B50400206884
:10423000016931F44051E068014320680161A168DF
:104240002069014360690143E06901432068C26855
:104250006248024011432068C1602068416931F41E
:104260004071A06901432068416120685C4988422F
:1042700003D020685B49884203D100F0B1FA050001
:1042800002E000F0A2FA0500E069B0F5004F52D15B
:104290001920A0FB050162680223A3FB0223FFF79C
:1042A00019F86421B0FBF1F61920A0FB0501626842
:1042B0000223A3FB0223FFF70DF807001920A0FB40
:1042C000050162680223A3FB0223FFF703F86421C0
:1042D000B0FBF1F1642000FB1171C80032306421A1
:1042E000B0FBF1F77F0017F4F87717EB06171920EA
:1042F000A0FB050162680223A3FB0223FEF7EAFF8D
:1043000006001920A0FB050162680223A3FB02231B
:10431000FEF7E0FF6421B0FBF1F1642000FB1166C1
:10432000F00032306421B0FBF1F010F00700C71943
:104330002068876050E01920A0FB05016268042313
:10434000A3FB0223FEF7C6FF6421B0FBF1F61920A0
:10435000A0FB050162680423A3FB0223FEF7BAFF5A
:1043600007001920A0FB050162680423A3FB0223B8
:10437000FEF7B0FF6421B0FBF1F1642000FB117186
:10438000080132306421B0FBF1F717F0F00717EBAA
:1043900006171920A0FB050162680423A3FB022372
:1043A000FEF798FF06001920A0FB050162680423B0
:1043B000A3FB0223FEF78EFF6421B0FBF1F1642022
:1043C00000FB1166300132306421B0FBF1F010F0D7
:1043D0000F00C71920688760F1BD0000F369FFFF77
:1043E0000010014000140140654909684906FBD5E9
:1043F000C0B264490860704780B56148634908608D
:104400004FF41650614948600020604988600020E0
:104410005E49C86000205D4908610C205B49486125
:1044200000205A49886100205849C8615748FFF761
:10443000EBFC002801D000F0B7F801BD10B586B044
:1044400004006846142100F029FA20684E49884289
:1044500041D1002005904E48006850F010004C49B2
:1044600008604B48006810F0100005900598002087
:1044700005904848006850F00100464908604548EA
:10448000006810F00100059005984FF4007000904E
:104490000120019000200290022003900720049048
:1044A00069463D4800F0FEF94FF48060009002201C
:1044B0000190012002900220039007200490694699
:1044C000354800F0EFF900220021252000F08BFB99
:1044D000252000F099FB2068294988424ED1002010
:1044E00005902E48006850F480102C4908602B4835
:1044F000006810F48010059005980020059025486C
:10450000006850F00400234908602248006810F059
:10451000040005900598002005901E48006850F0A2
:1045200008001C4908601B48006810F0080005904E
:1045300005984FF4805000900220019000200290D6
:1045400002200390082004906946154800F0AAF95B
:10455000042000900020019000200290022003908F
:104560000820049069460F4800F09CF900220021C1
:10457000352000F038FB352000F046FB06B010BDBA
:10458000005000400450004000100140A02F0120C6
:1045900044380240303802400000024040380240B7
:1045A00000080240000C024072B6FEE770B504003D
:1045B000A56D00F043FB060094F83500022806D0F4
:1045C00080206065002084F8340001203BE02068F2
:1045D000006830F01600216808602068406930F0FB
:1045E000800021684861206C002802D1A06C00285E
:1045F00005D02068006830F0080021680860206855
:104600000068400840002168086020680068C00712
:104610000ED500F013FB801B0628F6D32020606522
:10462000002084F83400032084F8350003200AE0D9
:104630003F21E06D8140A960002084F83400012012
:1046400084F83500002070BD90F83510022903D0A1
:1046500080214165012009E0052180F835100168BD
:1046600009684908490000680160002070477047E8
:10467000704770477047000070B504000D00002CB3
:1046800001D101209DE05C48006810F00700A842BD
:1046900009D2594805705848006810F00700A84230
:1046A00001D001208DE02078800719D520784007BF
:1046B00005D55248006850F4E05050490860207811
:1046C000000705D54D48006850F460404B4908602C
:1046D0004A48016831F0F001A06801434748016091
:1046E0002078C00736D56068012805D144480068A5
:1046F000800313D4012064E06068022802D060685F
:10470000032805D13E480068800107D4012058E005
:104710003B480068800701D4012052E03748016817
:1047200089088900606801433448016000F086FA16
:1047300006003248006810F00C006168B0EB810F91
:1047400008D000F07BFA801B41F289318842F0D317
:10475000032036E02848006810F00700854209D29F
:10476000254805702448006810F00700A84201D0D1
:10477000012026E02078400707D52048016831F461
:10478000E051E06801431D4801602078000708D52A
:104790001A48006830F46040216950EAC1001749A6
:1047A000086000F037F81749144A1268C2F3031280
:1047B000895CC840144908601448006800F044FA55
:1047C000002070BD10480068704780B5FFF7FAFF01
:1047D0000F490A4A1268C2F38222895CC84002BDAE
:1047E00080B5FFF7EFFF0A49044A1268C2F342326C
:1047F000895CC84002BD0000003C0240083802400D
:1048000000380240085B0008080000200400002077
:10481000745B000800B500200020002000201B4829
:10482000006810F00C00002804D0042804D00828E8
:1048300004D029E0164828E0164826E01648026809
:1048400012F03F021448006840020AD5124800687E
:10485000C0F388100F49A1FB00010023FEF73AFDC9
:1048600009E00D480068C0F388100949A1FB000168
:104870000023FEF72FFD08490968C1F30141491CD7
:104880004900B0FBF1F000E0014800BD08380240EB
:104890000024F40000127A0004380240002200F0E4
:1048A000F9B9000078B4002200220022002341E080
:1048B000082604E0DFF81C229042F9D10726F6B260
:1048C00013F00302D2B2920096403543DFF808227B
:1048D0001E00B60842F82650DFF800221268A243F4
:1048E0004D68ED0300D52243DFF8F0512A60DFF870
:1048F000F0211268A2434D68AD0300D52243DFF8D2
:10490000E0512A60DFF8DC211268A2434D68ED0215
:1049100000D52243DFF8CC512A60DFF8CC211268A1
:10492000A2434D68AD0201D514432200DFF8B8411F
:1049300022605B1C102B80F0A98001229A400C6839
:1049400014409442F5D10A7912F00302012A04D0EE
:104950000A7912F00302022A17D1856803261A0089
:10496000D2B252009640B543CE681A00D2B252007D
:10497000964035438560426801259D40AA434D68B5
:10498000C5F300159D402A4342600A7912F00302E4
:10499000032A0DD0C56803261A00D2B252009640F1
:1049A000B5438E681A00D2B2520096403543C560B6
:1049B0000A7912F00302022A17D11A00D20800EB7A
:1049C0008202156A0F2613F00702D2B292009640B7
:1049D000B5430E6913F00702D2B2920096403543F8
:1049E0001A00D20800EB82021562056803261A003D
:1049F000D2B252009640B5430E7916F003061A0063
:104A0000D2B252009640354305604A68D20090D534
:104A100000220092354A126852F48042334D2A60D7
:104A2000324A126812F480420092009A2A4A1D000B
:104A3000AD0852F825500F2613F00302D2B29200AF
:104A40009640B5432A4A904201D1002637E7294AC9
:104A5000904201D1012632E7274A904201D1022635
:104A60002DE7264A904201D1032628E7244A9042A6
:104A700001D1042623E7234A904201D105261EE7EF
:104A8000214A90427FF416AF062618E771BC7047A2
:104A9000006989B2084201D0012000E00020C0B2C4
:104AA0007047D2B2002A02D089B2816102E089B295
:104AB00009048161704780B51449096880B20142D8
:104AC00005D080B21149086080B200F07DF901BDC7
:104AD00000000000001C024008380140003C01407A
:104AE000043C0140083C01400C3C01404438024079
:104AF000000002400004024000080240000C024096
:104B0000001002400014024000180240143C014012
:104B100010F0070041490A684FF6FF010A4040497A
:104B200051EA00210A433D48026070473B48006853
:104B3000C0F30220704740B2002808D4012210F0D0
:104B40001F018A40374940B2400941F82020704790
:104B500040B2002804D40901334A40B2115407E09E
:104B60000901324A40B210F00F00104400F8041C52
:104B7000704710B410F00700D0F10703052B01D3E4
:104B8000042301E0D0F10703041D072C01D200200B
:104B900000E0C01E012414FA03F35B1E194081409B
:104BA000012313FA00F0401E1040084310BC704768
:104BB00080B5411EB1F1807F01D301200EE0401E7F
:104BC0001B4908600F215FF0FF30FFF7C1FF002095
:104BD00018490860072018490860002002BD80B508
:104BE000FFF796FF01BD70B504000D001600002010
:104BF000FFF79CFF32002900FFF7BBFF01002000F8
:104C000040B2FFF7A5FF70BD80B540B2FFF793FF3C
:104C100001BD80B5FFF7CCFF02BD00000CED00E048
:104C20000000FA0500E100E000E400E018ED00E01B
:104C300014E000E018E000E010E000E00148006847
:104C4000704700BFEC30012010B504004FF47A70BB
:104C50000D490978B0FBF1F00C490968B1FBF0F09F
:104C6000FFF7D7FF002801D001200CE0102C09D25B
:104C7000002221005FF0FF30FFF7B5FF0448046019
:104C8000002000E0012010BD0C00002008000020E2
:104C90000400002000B500BF13009646944610396A
:104CA00028BFA0E80C50FAD85FEA417C28BF0CC0AE
:104CB00048BF40F8042BC90728BF20F8022B48BF83
:104CC00000F8012B00BD000080B553480078012892
:104CD00011D1524800F0D2F851480068FBF7DBFBD5
:104CE00050480068FBF7D7FB4F480068FBF7D3FB41
:104CF00000204949087048480078022811D14B48E3
:104D000000F0BCF846480068FBF74BFC45480068DB
:104D1000FBF747FC44480068FBF743FC00203E4992
:104D200008706420FBF791FBCFE7E0B50120404815
:104D3000019006200090002380223E493E48FBF768
:104D400023FA012803D13D4800F098F802E03C48DE
:104D500000F094F807BD80B586B000200090394877
:104D6000006850F02000374908603648006810F0AD
:104D70002000009000984FF470700190324802902B
:104D80000120039001A93148FFF78CFD0022022188
:104D90001720FFF728FF1720FFF736FF07B000BDE9
:104DA00080B54021294800F073F9002802D1402045
:104DB000FFF781FE8021254800F06AF9002802D122
:104DC0008020FFF778FE01BD80B2402802D0802805
:104DD00004D006E001201049087002E002200E49CC
:104DE0000870704780B5012300224021174800F069
:104DF0005BF8012300228021144800F055F80123BC
:104E000000224FF48071114800F04EF8FFF7A3FF25
:104E1000FFF78BFF01BD000044310120E85A000874
:104E2000D8300120D4300120BC300120F85A0008CD
:104E3000D0300120445B0008C94C0008AC59000880
:104E4000405A00083038024000002110001402408F
:104E500010B5040006E00D20FFF7C6FA0A20FFF7A0
:104E6000C3FA641C2078002807D020780A28F2D0E2
:104E70002078FFF7B9FA641CF4E710BD0EB430B522
:104E80000400C9213022074D2800FCF7B1F903AA1C
:104E90002100044800F008F90248FFF7D9FF30BCB0
:104EA0005DF810FB902E0120F8B586B006000F00CB
:104EB00015001C0001A81421FFF7F0FC654886428C
:104EC0000ED1002000906448006850F00100624953
:104ED00008606148006810F00100009000988BE0C5
:104EE0005E4886420ED1002000905B48006850F07A
:104EF0000200594908605848006810F0020000900C
:104F0000009879E0564886420ED100200090524821
:104F1000006850F00400504908604F48006810F0E5
:104F200004000090009867E04E4886420ED10020B1
:104F300000904948006850F008004749086046481A
:104F4000006810F008000090009855E0464886423E
:104F50000ED1002000904048006850F010003E49FB
:104F600008603D48006810F010000090009843E091
:104F70003E4886420ED1002000903748006850F02D
:104F80002000354908603448006810F02000009087
:104F9000009831E0364886420ED1002000902E481D
:104FA000006850F040002C4908602B48006810F061
:104FB0004000009000981FE02E4886420ED100204D
:104FC00000902548006850F080002349086022487E
:104FD000006810F08000009000980DE00020009024
:104FE0001D48006850F480701B4908601A4800682A
:104FF00010F4807000900098BFB20197EDB2002DC0
:1050000009D100200290E4B2002C02D102200390CA
:1050100001E001200390EDB2012D13D10120029097
:1050200000200390E4B2002C06D10022390089B29E
:105030003000FFF736FD05E00122390089B230006B
:10504000FFF72FFD0020049001A93000FFF72AFC94
:1050500007B0F0BD000002403038024000040240BA
:1050600000080240000C0240001002400014024000
:1050700000180240001C024080B5012289B2FFF7EF
:1050800010FD01BD80B5002289B2FFF70AFD01BD08
:1050900080B5002289B2FFF7FBFC002801D0012077
:1050A00000E0002002BD000016B5002282B00446D8
:1050B000009201940A4603AB01A9084878441C30C9
:1050C000FDF7A4F9019900220A7000284EBF04469A
:1050D0000198041B204604B010BD00BF13C2FFFF9F
:1050E0007CB50400002C01D10120EDE12078C0073F
:1050F0006FD5DFF8D803006810F00C0004280BD03F
:10510000DFF8C803006810F00C0008280ED1DFF8A3
:10511000C0030068400209D5DFF8B80300688003C7
:1051200057D56068002854D10120CDE16068B0F502
:10513000803F08D1DFF89C03006850F48030DFF82E
:105140009413086024E06068B0F5A02F10D1DFF858
:105150008403006850F48020DFF878130860DFF8DB
:105160007403006850F48030DFF8681308600FE0C3
:10517000DFF86003006830F48030DFF8581308600F
:10518000DFF85003006830F48020DFF8481308602F
:10519000606800280ED0FFF751FD0500DFF83403EA
:1051A0000068800315D4FFF749FD401B6528F5D33F
:1051B000032089E1FFF742FD0500DFF818030068CE
:1051C000800306D5FFF73AFD401B6528F5D3032081
:1051D0007AE12078800724D5DFF8F002006810F02B
:1051E0000C0F0BD0DFF8E402006810F00C00082868
:1051F0002ED1DFF8DC020068400229D4DFF8D402A7
:105200000068800704D5E068012801D001205BE137
:10521000B048006830F0F800216950EAC100AD499B
:1052200008602078000753D5606900283FD001202E
:10523000A9490860FFF702FD0500A848006880073B
:1052400046D4FFF7FBFC401B0328F6D303203BE1C9
:10525000E06800281AD00120A1490860FFF7EEFCA1
:1052600005009C480068800706D4FFF7E7FC401B58
:105270000328F6D3032027E19648006830F0F800B1
:10528000216950EAC10093490860CAE700209449A7
:105290000860FFF7D3FC05008E4800688007C0D582
:1052A000FFF7CCFC401B0328F6D303200CE10020C1
:1052B00089490860FFF7C2FC05008848006880073C
:1052C00006D5FFF7BBFC401B0328F6D30320FBE009
:1052D000207840077DD5002582480068C0000ED4A4
:1052E000002000907F48006850F080507D490860A1
:1052F0007C48006810F080500090009801257A48A2
:105300000068C00513D47848006850F4807076496E
:105310000860FFF793FC060073480068C00506D4D8
:10532000FFF78CFC801B0328F6D30320CCE0A06899
:10533000012806D16D48006850F001006B490860F3
:105340001BE0A06805280CD16848006850F00400F4
:10535000664908606548006850F0010063490860CC
:105360000BE06248006840084000604908605F4800
:10537000006830F004005D490860A06800280FD084
:10538000FFF75CFC060059480068800718D4FFF757
:1053900055FC801B41F289318842F4D3032093E00D
:1053A000FFF74CFC060051480068800708D5FFF75E
:1053B00045FC801B41F289318842F4D3032083E00D
:1053C000EDB2012D05D14748006830F080504549C5
:1053D0000860A069002876D03C48006810F00C00F6
:1053E000082845D0A069022831D100204049086032
:1053F000FFF724FC050037480068800106D5FFF759
:105400001DFC401B0328F6D303205DE0E169206A00
:105410000143606A51EA8011A06A4008401E51EAC7
:105420000041E06A51EA00612948016001203049E9
:105430000860FFF703FC040026480068800142D49E
:10544000FFF7FCFB001B0328F6D303203CE0002001
:1054500027490860FFF7F2FB04001E48006880013E
:1054600031D5FFF7EBFB001B0328F6D303202BE01D
:10547000A069012801D1012026E015480068A16932
:1054800001291ED010F48001E269914219D110F077
:105490003F01226A914214D147F6C0710140626A0D
:1054A000B1EB821F0DD110F44031A26A5208521E96
:1054B000B1EB024F05D110F07060E16AB0EB016F03
:1054C00001D0012000E0002076BD00BF0838024076
:1054D0000438024000380240800E474274380240CF
:1054E00000004742403802400070004070380240DF
:1054F0006000474280B54FF480413448FFF7C2FD59
:105500006420FAF7A2FF4FF480413048FFF7B4FD62
:105510006420FAF79AFFEEE780B54FF400512B486C
:10552000FFF7B0FD3220FAF790FF4FF40051274803
:10553000FFF7A2FD3220FAF788FFEEE7E0B5012081
:105540002348019004200090002380222149224812
:10555000FAF71AFE012803D12048FFF78FFC02E07A
:105560001F48FFF78BFC07BDE0B501201D480190E7
:1055700005200090002380221B491C48FAF704FEF6
:10558000012803D11A48FFF779FC02E01948FFF718
:1055900075FC07BD80B5012301224FF400510B4873
:1055A000FFF782FC012301224FF480410748FFF7F7
:1055B0007BFC012301224FF400410448FFF774FCF7
:1055C000FFF7D2FFFFF7BAFF01BD0000001802404D
:1055D000D4300120505B0008F5540008CC59000875
:1055E0005C5A0008D83001205C5B0008195500089F
:1055F000EC590008785A000880B592B000200020CD
:1056000000902B48006850F08050294908602848D5
:10561000006810F08050009000980020009025480D
:10562000006850F48040234908602248006810F464
:10563000804000900098012006905FF48030079031
:1056400002200C905FF480000D9008200E904FF423
:10565000A8700F90022010900720119006A8FFF765
:105660003FFDC0B2002800D0FEE70F2001900220CD
:105670000290002003904FF4A05004904FF480500B
:105680000590052101A8FEF7F7FFC0B2002800D061
:10569000FEE700F030F841F20101884205D10648EA
:1056A000006850F480700449086013B000BD000029
:1056B0004038024000700040003C024080B5104875
:1056C000006850F400700E4908600D48006850F4FE
:1056D00080600B4908600A48006850F480700849EF
:1056E00008600320FFF77BFA0020FFF7ADFA00F017
:1056F0000BF8002002BD03480068000C7047000052
:10570000003C0240002004E081B0002000900E48E0
:10571000006850F480400C4908600B48006810F4A1
:10572000804000900098002000900848006850F0E9
:105730008050064908600548006810F080500090CD
:10574000009801B0704700BF443802404038024022
:1057500080B5FEF751FE1748FFF790FB1648FFF79C
:105760008DFBFBF757FE00F065F8FFF713FFFFF71F
:1057700039FB12480068FAF7F8FDFBF768FEF8E716
:10578000E0B5FFF79BFFFFF737FF01200B480190C3
:105790000120009000234FF4007209490948FAF7EC
:1057A000F3FC012802D1FAF740FFFEE75FF0FF307B
:1057B0000EBD00007C580008B4580008B830012025
:1057C000D85A00085157000880B501224FF4004113
:1057D0001248FFF766F9C820FAF737FE00224FF4A7
:1057E00000410E48FFF75DF9C820FAF72EFEECE7FE
:1057F000E0B501200A480190022000900023802299
:1058000008490948FAF7C0FC012803D10748FFF707
:1058100035FB02E00648FFF731FB07BD00180240E8
:10582000BC300120385B0008C9570008945A0008B2
:10583000AC5A000880B5FFF7DBFF01BD19E050F856
:10584000042BD30744BFA9F101039A18091F0023B1
:10585000042942F8043BF9D25FEA817C134604D55F
:105860004FF0000CA2F800C09B1CC90744BF0021E8
:10587000197050F8041B0029E1D170470A0D0A0D78
:105880002E2E2E2E2E2E2E2E2E2E2E2EBBB6D3ADFF
:10589000C0B4B5BD4672656552544F53B2D9D7F7FF
:1058A000CFB5CDB32E2E2E2E2E2E2E2E2E0A0D0A35
:1058B0000D0000002E2E2E2E2E2E2E2E2E2E2E2EB3
:1058C0002E2E2E2E2E2E2E2E53544D333246343065
:1058D000372E2E2E2E2E2E2E2E2E2E2E2E2E2E2EDF
:1058E0002E0A0D0A0D00000010B450F8041B79B107
:1058F0000268436802440830DC0744BFA9F1010490
:10590000E31852F8044B43F8044B091FF9D1ECE7B4
:1059100010BC7047FEE7FEE7FEE7FEE7FEE77047D4
:1059200080B50448FEF7ABFA01BD80B50248FEF72A
:10593000A6FA01BD5C2F0120A02F012010B5074958
:1059400079441831064C7C44163404E00A68081D7A
:10595000114488470146A142F8D110BD2C00000037
:105960004C0000004EF68851CEF20001086840F469
:1059700070000860BFF34F8FBFF36F8F4FF0007060
:10598000E1EE100A70470000B5FEFFFF383101005C
:10599000100000200000000051FFFFFF1000000079
:1059A0008801000000000020000000000A204B4594
:1059B0005931205441534B206372656174652073E3
:1059C000756363657373200A000000000A204C456C
:1059D0004431205441534B206372656174652073D8
:1059E000756363657373200A000000000A204C454C
:1059F0004430205441534B206372656174652073B9
:105A0000756363657373200A0000000000F00DF8F1
:105A1000002801D0FFF792FFAFF300800020AFF322
:105A20000080FFF7ADFE00F002F80120704700F0A3
:105A300001B8000007463846FEF7DCF9FBE7000036
:105A40000A204B455931205441534B206372656104
:105A50007465206661696C6564200A000A204C4503
:105A60004431205441534B20637265617465206654
:105A700061696C6564200A000A204C45443020545A
:105A800041534B20637265617465206661696C6582
:105A900064200A000AD6D5B6CBBDBBBBA5C8CECE06
:105AA000F1B4B4BDA8B3C9B9A60A00000AD6D5B6E8
:105AB000CBBDBBBBA5C8CECEF1B4B4BDA8CAA7B000
:105AC000DC0A00000348006850F4700001490860D7
:105AD0007047000088ED00E04170705461736B43C3
