:020000040800F2
:1000000030340120C53A0008753A0008773A0008F4
:10001000793A00087B3A00087D3A000800000000A9
:10002000000000000000000000000000A919000806
:100030007F3A00080000000051190008E112000892
:10004000313B0008353B0008393B00083D3B0008C8
:10005000413B0008453B0008493B00084D3B000878
:10006000513B0008553B0008593B00085D3B000828
:10007000613B0008653B0008693B00086D3B0008D8
:10008000713B0008753B0008793B00087D3B000888
:10009000813B0008853B0008893B00088D3B000838
:1000A000913B0008953B0008993B00089D3B0008E8
:1000B000A13B0008A53B0008A93B0008AD3B000898
:1000C000B13B0008B53B0008B93B0008BD3B000848
:1000D000C13B0008813A0008C53B0008C93B000845
:1000E000CD3B0008D13B0008D53B0008D93B0008B8
:1000F000DD3B0008E13B0008E53B0008E93B000868
:10010000ED3B0008F13B0008F53B0008F93B000817
:10011000FD3B0008013C0008053C0008093C0008C4
:100120000D3C0008113C0008153C0008193C000873
:100130001D3C0008213C0008253C0008293C000823
:100140002D3C0008313C0008353C0008393C0008D3
:100150003D3C0008413C0008453C0008493C000883
:100160004D3C0008513C0008553C0008593C000833
:100170005D3C0008613C0008653C00080000000090
:10018000693C00086D3C00082DE9F84384B08046C6
:10019000894616001F00B6B2B00000F02FFE050021
:1001A000002D0BD0582000F029FE0400002C01D0B7
:1001B000256304E0280000F0A8FE00E00024002CE5
:1001C00012D00D990C980022039202940191009094
:1001D0003B00B6B232004946404600F00AF8200023
:1001E00000F062F8012001E05FF0FF3005B0BDE8EB
:1001F000F0832DE9F84380460C0017001D000A9E8D
:10020000B900A522D6F83090484600F025FF306BA3
:1002100000EB8700071FFF08FF0017F0070000280A
:1002200007D0502080F31188BFF34F8FBFF36F8F3B
:10023000FEE7002100E0491C0A2907D2605C06EBBA
:10024000010282F83400605C0028F4D1DDF82090CF
:10025000002086F83D00B9F1200F01D35FF01F099F
:10026000099CC6F82C90C6F848900020F064301D18
:1002700000F034FF16F1180000F030FF3661D9F1BC
:100280002009C6F81890766200203065002086F8B4
:1002900054002A004146380000F05EFF3060002C18
:1002A00000D02660BDE8F18310B5040000F0E2FF45
:1002B000DFF8E4040068401CDFF8DC140860DFF8B5
:1002C000DC04006800280AD1DFF8D0040460DFF8FD
:1002D000C8040068012811D100F0CFFB0EE0DFF860
:1002E00030050068002809D1E06ADFF8B014096819
:1002F000C96A884202D3DFF8A4040460DFF8140559
:100300000068401CDFF80C150860DFF8080500687D
:100310002064DFF8340501680122E06A824011435D
:10032000DFF824050160211DDFF82025E36A142091
:10033000434302EB030000F0D4FE00F0B8FFDFF807
:10034000D004006800280FD0DFF850040068C06AAD
:10035000E16A884208D25FF08050DFF8F415086047
:10036000BFF34F8FBFF36F8F10BD10B5040000F0C7
:1003700081FF002C03D1DFF824040468FFE7201D6F
:1003800000F0D6FE002811D1DFF8C014E26A142074
:1003900042438858002809D1DFF8AC0401680122E3
:1003A000E06A82409143DFF8A0040160A06A00285F
:1003B00003D014F1180000F0BBFEDFF85804006809
:1003C000401CDFF850140860DFF8D0030068844256
:1003D0000CD1211DDFF8B40400F083FEDFF8B00477
:1003E0000068401CDFF8A81408600BE0DFF8A803E1
:1003F0000068401EDFF8A0130860200000F09EFB9C
:1004000000F0A5FB00F053FFDFF8040400680028AB
:100410001AD0DFF888030068844215D1DFF80005A0
:100420000068002807D0502080F31188BFF34F8F59
:10043000BFF36F8FFEE75FF08050DFF814150860A0
:10044000BFF34F8FBFF36F8F10BD10B504000020B6
:10045000002C14D0DFF8C8040068002807D0502012
:1004600080F31188BFF34F8FBFF36F8FFEE700F06B
:1004700048F80021200000F069FC00F06DF8002829
:1004800008D15FF08050DFF8C8140860BFF34F8FC9
:10049000BFF36F8F10BDE0B5DFF8AC07019000200F
:1004A000009000238022DFF8A4170FF23D50FFF7E1
:1004B0006BFE012801D101F001F8012816D150206E
:1004C00080F31188BFF34F8FBFF36F8F5FF0FF3062
:1004D000DFF87C1708600120DFF834130860002083
:1004E000DFF84014086000F060FE07BD10F1010F56
:1004F000FBD1502080F31188BFF34F8FBFF36F8F74
:10050000FEE7DFF81C040068401CDFF814140860E4
:10051000704700210120DFF830231268904200D29A
:100520000121DFF878020068C06A002801D00020AD
:1005300011E0DFF818030068022801D300200AE068
:10054000002901D0002006E0DFF804070168DFF889
:10055000D4030068081A704738B500240025DFF876
:10056000C0030068002807D1502080F31188BFF332
:100570004F8FBFF36F8FFEE700F07CFEDFF8A00324
:100580000068401EDFF898130860DFF894030068E5
:10059000002859D180480068002829D154E0DFF8AC
:1005A000A406C068C46814F1180000F0C1FD201D45
:1005B00000F0BEFDDFF8900201680122E06A82408F
:1005C0001143DFF884020160211DDFF88022E36A15
:1005D0001420434302EB030000F083FDE06A6F49FF
:1005E0000968C96A884203D30120DFF8441708600C
:1005F000DFF8500600680028D1D1002C01D000F0AF
:10060000A6FADFF828070468002C0ED000F03AF8AC
:10061000002803D00120DFF818170860641E002CA2
:10062000F4D10020DFF804170860DFF80407006841
:10063000002809D001255FF08050DFF8141308600E
:10064000BFF34F8FBFF36F8F00F031FE280032BD34
:10065000DFF8D00200687047DFF8F4150968B14A86
:1006600012688218914207D2502080F31188BFF39C
:100670004F8FBFF36F8FFEE7AA4909684018A94959
:100680000860704770B50025A5480068002873D140
:10069000A4480468641CA3480460002C22D1DFF83D
:1006A000400300680068002807D0502080F31188BC
:1006B000BFF34F8FBFF36F8FFEE7DFF824030068AF
:1006C000DFF820130968DFF818231160DFF814132E
:1006D0000860DFF860060068401CDFF85816086004
:1006E00000F035FADFF868050068844233D321E072
:1006F000301D00F01DFDB06A002803D016F118006F
:1007000000F016FD504801680122F06A8240114352
:100710004D480160311D4D4AF36A1420434302EBFA
:10072000030000F0DEFCF06A1C490968C96A8842CF
:1007300000D30125DFF8A80200680068002815D062
:10074000DFF89C020068C068C66870688442CFD237
:10075000DFF8FC1408603D4910480068C26A1420A4
:100760004243885802280ED301250CE05FF0FF3089
:10077000DFF8DC140860EEE7DFF8B0050068401C25
:10078000DFF8A8150860DFF8A8050068002800D089
:100790000125280070BD0000E82F0120D82F01207E
:1007A0005F480068002804D00120DFF88415086045
:1007B0002DE00020DFF87815086023480068B0FAC3
:1007C00080F1D1F11F012148142202FB01F280586F
:1007D000002807D1502080F31188BFF34F8FBFF35B
:1007E0006F8FFEE7194A1420414302EB0100416874
:1007F00049684160416810F10802914202D14168A4
:10080000496841604068C068DFF834150860704787
:10081000F42F01200430012010B50C00002807D16E
:10082000502080F31188BFF34F8FBFF36F8FFEE727
:10083000DFF80C150968183100F05FFC0121200079
:1008400000F084FA10BD0000F02F0120102C0120D0
:1008500038B50D001400002807D1502080F311880E
:10086000BFF34F8FBFF36F8FFEE7DFF85C150968AA
:10087000183100F036FC002C01D05FF0FF3521006C
:10088000280000F063FA31BD00000000502F012065
:10089000E42F012010B5C068C468002C07D1502097
:1008A00080F31188BFF34F8FBFF36F8FFEE714F112
:1008B000180000F03DFC1A480068002817D1201DE0
:1008C00000F036FCDFF8740401680122E06A82401F
:1008D0001143DFF868040160211DDFF86824E36A32
:1008E0001420434302EB030000F0FBFB05E014F18E
:1008F0001801DFF8500300F0F4FBDFF8440400684F
:10090000C06AE16A884205D201240120DFF8281478
:10091000086000E0002400F01AF9200010BD00007B
:1009200010300120EC2F0120002807D1502080F347
:100930001188BFF34F8FBFF36F8FFEE7DFF8F4131B
:1009400009680160DFF8841409684160704700009D
:1009500004ED00E038B504000D00002C07D1502054
:1009600080F31188BFF34F8FBFF36F8FFEE7002D29
:1009700007D1502080F31188BFF34F8FBFF36F8FE3
:10098000FEE700F077FCDFF844040168286810F106
:10099000010F01D100241AE0DFF8980300682268F3
:1009A000904204D06068814201D301240FE0606866
:1009B000081A2A68904209D22868411A60684118CA
:1009C00029602000FFF7B0FF002400E0012400F0C0
:1009D0006EFC200032BD0120DFF85C130860704718
:1009E000DC2F0120E02F012080B507E0FFF791FD0B
:1009F000022801D300F0C6FCFFF7AEFD00F069F855
:100A0000DFF840030068022807D35FF080504A49AE
:100A10000860BFF34F8FBFF36F8FFFF77AFD022897
:100A2000ECD3FFF76EFD8A480068DFF8A013096871
:100A30008842DBD2502080F31188BFF34F8FBFF381
:100A40006F8FFEE7012201207E490968002901D04D
:100A5000002010E0DFF8D8120968002901D000203A
:100A600009E0DFF86C130968DFF868331B689A1A2D
:100A7000914200D10220C0B2704710B5002408E0B6
:100A8000DFF8C002142101FB04F1084400F017FB59
:100A9000641C202CF4D3DFF8400300F010FBDFF8D7
:100AA0003C0300F00CFB674800F009FBDFF8300363
:100AB00000F005FBDFF8180300F001FBDFF8180376
:100AC000DFF820130860DFF81403DFF81C13086058
:100AD00010BD10B520E00024FFF73EFD002C1BD117
:100AE00000F0C8FBDFF8F802C068C468201D00F001
:100AF0001FFBDFF8E0020068401EDFF8D812086034
:100B0000DFF8E8020068401EDFF8E012086000F03D
:100B1000CEFB200000F012F8DFF8D00200680028B9
:100B200008D0FFF7EEFCDFF8B80200680028D2D149
:100B30000124D1E710BD000004ED00E010B5040071
:100B4000206B00F0E2F9200000F0DFF910BDDFF8C3
:100B5000940200680068002804D15FF0FF303C492F
:100B6000086007E0DFF87C020068C068C068406881
:100B7000374908607047DFF878020068002801D123
:100B8000012007E0DFF8C0010068002801D1022041
:100B900000E00020704710B50400002C50D0E06A3F
:100BA000DFF824120968C96A884249D2A06900287E
:100BB00006D4DFF814020068C06AD0F12000A061FA
:100BC0006169DFF88021E36A1420434302EB0300EC
:100BD000814230D1201D00F0ABFA002811D1DFF89E
:100BE0006411E26A142042438858002809D1DFF8D2
:100BF0004C0101680122E06A82409143DFF83C0128
:100C00000160DFF8C4010068C06AE062DFF82C010F
:100C100001680122E06A82401143DFF8200101608F
:100C2000211DDFF82021E36A1420434302EB030077
:100C300000F057FA04E0DFF890010068C06AE06253
:100C400010BD00003C2F01200C300120103B00089B
:100C50000830012010B504000021002C53D0DFF82B
:100C6000E0000068844207D0502080F31188BFF371
:100C70004F8FBFF36F8FFEE7E06C002807D1502045
:100C800080F31188BFF34F8FBFF36F8FFEE7E06CE7
:100C9000401EE064E06AA26C904234D0E06C002810
:100CA00031D1201D00F044FA002811D1DFF8941052
:100CB000E26A142042438858002809D1DFF87C00FA
:100CC00001680122E06A82409143DFF87000016010
:100CD000A06CE062E06AD0F12000A061DFF85C0067
:100CE00001680122E06A82401143DFF85000016090
:100CF000211DDFF85020E36A1420434302EB030078
:100D000000F0EFF90121080010BD0000DFF8B80085
:100D10000068002805D0DFF8B0000068C16C491CED
:100D2000C164DFF8A400006870470000F82F0120BC
:100D3000FC2F012000300120FC2F0120F02F01208A
:100D4000D82F0120102C01201030012070B5050093
:100D50000C001E4806681C480068001D00F0E8F9F9
:100D6000002809D118480068224909680122C06A90
:100D7000824091431F48016015F1010F08D1002CFA
:100D800006D011480068011D114800F0AAF91AE0C8
:100D9000AD190D4800684560B54207D20A480068A1
:100DA000011D1148006800F0A8F90CE00648006831
:100DB000011D0C48006800F0A0F90F48006885424A
:100DC00001D20D48056070BDD82F0120EC2F012005
:100DD000642F0120E82F0120142F0120282F01204B
:100DE000502F0120DC2F0120E02F0120E42F0120D3
:100DF000F42F0120F02F01200830012070B50400ED
:100E00000025FFF77EFB8D480068002801D100F027
:100E1000B7F88B480068044267D1002C15D0894888
:100E20000068041914F0070F0FD014F1080014F033
:100E30000704041B14F0070F07D0502080F311881B
:100E4000BFF34F8FBFF36F8FFEE7002C4DD07E486E
:100E50000068A04249D37D497C48066801E0310022
:100E600036687068A04202D230680028F7D1734813
:100E70000068864239D00868724A126800EB0205A1
:100E8000306808606F48006840007168091B88423C
:100E900014D206EB040111F00700002807D05020FF
:100EA00080F31188BFF34F8FBFF36F8FFEE7706839
:100EB000001B48607460080000F093F86248016805
:100EC0007068091A604801605F48006860490968F5
:100ED000884203D25C4800685D49086071685848E0
:100EE00000680143716000203060FFF735FB15F0AA
:100EF0000700002807D0502080F31188BFF34F8FE0
:100F0000BFF36F8FFEE7280070BD10B5002836D004
:100F10004C490968494200EB010460684849096886
:100F2000084207D1502080F31188BFF34F8FBFF3E1
:100F30006F8FFEE72068002807D0502080F31188CB
:100F4000BFF34F8FBFF36F8FFEE760683C490968BE
:100F5000084214D02068002811D161683848006820
:100F600081436160FFF7CDFA374801686068411836
:100F700035480160200000F034F8FFF7EDFA10BDAD
:100F80005FF49632334911F0070F05D0C91DC90827
:100F9000C900521A2F4882182C48016000202B4BA0
:100FA0005860521827480068121AD208D200234805
:100FB00002600020214B1B68586000201F4B1B68FB
:100FC0001860521A4A601D48006808604868204A44
:100FD000106048681C4908605FF0004018490860CC
:100FE00070471A4A00E0126811688142FBD35168C9
:100FF0001144814204D15168406841185160100089
:10100000416801441368994211D111680B4B1B6868
:10101000994208D0436811684968CB184360116849
:101020000968016005E005490968016001E011688F
:101030000160824200D0106070470000B42F012090
:10104000C02F0120283B0008B82F0120A02F01202D
:10105000BC2F01201000002062F30F2262F31F4218
:10106000401810F0030308D0C91A1FD3DB0748BF8C
:1010700000F8012D28BF20F8022D130030B41446CB
:101080001546103928BF20E93C00FAD8490728BF87
:1010900020E90C0048BF40F8042D890028BF20F843
:1010A000022D48BF00F8012D30BC7047C91818BF89
:1010B00000F8012DCB0728BF00F8012D704710F173
:1010C000080141605FF0FF31816010F10801C160EB
:1010D00010F10801016100210160704700210161E8
:1010E000704742684A6093688B609368596091606A
:1010F00008610168491C0160704710B40B6813F166
:10110000010F01D1026907E010F1080200E0526806
:1011100054682468A342FAD253684B604B689960C4
:101120008A60516008610168491C016010BC704709
:101130000169826843689A60426883685A604A68B5
:10114000824201D182684A60002202610868401E22
:101150000860086870470000001F5FF0807303603C
:10116000001F490849000160001F0FF215010160CE
:1011700014380260001F7FF00201016020387047C0
:101180007448006810F1010F07D0502080F31188D7
:10119000BFF34F8FBFF36F8FFEE7502080F31188AE
:1011A000BFF34F8FBFF36F8FFEE7E0B56A4800686B
:1011B0006A49884207D1502080F31188BFF34F8FCE
:1011C000BFF36F8FFEE7644800686549884207D126
:1011D000502080F31188BFF34F8FBFF36F8FFEE76E
:1011E000604801780191FF21017001788DF80010AD
:1011F0009DF8001011F050015B4A117007215B4A05
:10120000116009E059490968491E584A11609DF862
:10121000001049008DF800109DF800100906F1D467
:10122000524909680902514A11605049096811F48C
:10123000E0614E4A1160019901704D48006850F418
:1012400070004B4908604A48006850F070404849B7
:10125000086000F049FB00203E49086000F0BEFB3A
:101260004448006850F040404249086000F0AAFB42
:1012700000200EBD502080F31188BFF34F8FBFF3C5
:101280006F8F34480068401C32490860314800685C
:1012900001280BD138480068000607D0502080F3A1
:1012A0001188BFF34F8FBFF36F8FFEE77047294858
:1012B0000068002807D1502080F31188BFF34F8FBA
:1012C000BFF36F8FFEE723480068401E2149086086
:1012D00020480068002802D1002080F31188704760
:1012E00080B5502080F31188BFF34F8FBFF36F8F0D
:1012F000FFF7C8F9002803D05FF080501E4908604E
:10130000002080F3118801BDEFF3058010280FD372
:101310001A490968085C14490978C0B2884207D2A2
:10132000502080F31188BFF34F8FBFF36F8FFEE71C
:101330000E4800681249096811F4E061884207D23A
:10134000502080F31188BFF34F8FBFF36F8FFEE7FC
:10135000704700000000002000ED00E071C20F4166
:1013600070C20F4100E400E028300120D02F01209E
:1013700020ED00E034EF00E004ED00E02C3B00083D
:101380000CED00E038B5040046480068A04201D2E8
:1013900044480468444800684008400042490860E6
:1013A0004248016842480568601E00FB0515414837
:1013B0000068A84202D23F4800682D1A72B6BFF3F7
:1013C0004F8FBFF36F8FFFF73DFB002810D13748D9
:1013D0000068394908603448006850F0010032491B
:1013E000086033480068401E3349086062B657E021
:1013F0003148056000202D4908602B48006850F0F6
:10140000010029490860002C04D0BFF34F8F30BF82
:10141000BFF36F8F2448006841084900224A1160D9
:1014200062B6C00315D522480068401E451B1F4800
:10143000006845191F480068854203D31C480068AE
:10144000A84202D21A4805686D1E1B480560641E3A
:1014500011E017480068444314480068241A21002A
:1014600013480068B1FBF0F4621C11480068424365
:10147000511A1148016000200C490860FFF7FAFE7C
:101480000948006850F00100074908602000FFF794
:10149000E3F807480068401E07490860FFF707FFA8
:1014A00031BD00BFC82F012010E000E018E000E0CF
:1014B000C42F0120CC2F012014E000E01CB5002433
:1014C00000F0D7F9DFF8F803006800280ED0DFF845
:1014D000F40301901F20009000234FF48072DFF886
:1014E000E8130FF2F500FEF74FFE0400002C07D1C1
:1014F000502080F31188BFF34F8FBFF36F8FFEE74B
:10150000200016BD38B584B01D000023002807D187
:10151000502080F31188BFF34F8FBFF36F8FFEE72A
:10152000DFF89C432468002C25D0009101920290A2
:10153000062917DAFFF71FFB022809D1089A0023B2
:101540006946DFF87C03006800F0D9FA030012E076
:10155000002300226946DFF86803006800F0CFFA34
:10156000030008E000232A006946DFF854030068FE
:1015700000F0A3FB0300180005B030BD7CB50400EB
:101580000D00DFF848030068C068C668301DFFF72B
:10159000CFFDF06901281AD123002A00B169091989
:1015A000300000F089F8002811D0002000900023BE
:1015B000220000213000FFF7A5FF002807D15020AE
:1015C00080F31188BFF34F8FBFF36F8FFEE73000BA
:1015D000716A884773BD000080B5684600F041F825
:1015E000009900F003F800F086F8F6E77CB50500F6
:1015F0000C00FEF786FF684600F049F806000098E8
:1016000000282BD1002C08D1AE4206D3FEF7A4FF50
:1016100031002800FFF7B2FF22E0002C08D0DFF8ED
:10162000B00200680068002801D1012400E0002415
:101630002200AD1B2900DFF88802006800F062FD7F
:10164000FEF78AFF00280BD15FF08050DFF884128C
:101650000860BFF34F8FBFF36F8F01E0FEF77CFF91
:1016600073BDDFF8681209680968002901D10121FA
:1016700000E00021C9B201600068002805D1DFF850
:101680004C020068C068006800E00020704738B570
:101690000400FEF7DDFF0500DFF83C02006885422C
:1016A00004D200F0A7F80120206001E000202060B3
:1016B00089480560280032BD10B5002441600061F2
:1016C0008A420BD3D21A81698A4201D3012410E0E5
:1016D000011D7F480068FFF710FD0AE09A4203D21F
:1016E000994201D3012404E0011D78480068FFF706
:1016F00004FD200010BD10B586B0FFE700230022D6
:1017000001A96F48006800F052FB002870D00198D2
:1017100000280ED502AA002A07D1502080F3118894
:10172000BFF34F8FBFF36F8FFEE791685068126869
:10173000904701980028E1D4039C6069002802D0FA
:10174000201DFFF7F5FC05A8FFF7A1FF0100019898
:1017500000280ED002280CD00BD304282ED02CD376
:10176000062806D03FD3082827D002D3092825D041
:101770003DE0029B0A000299A06941182000FFF792
:101780009BFF0028BAD02000616A8847E0690128E1
:10179000B4D1002000900023029AA0698218002191
:1017A0002000FFF7AFFE0028A8D1502080F3118859
:1017B000BFF34F8FBFF36F8FFEE79FE70298A061E3
:1017C000A069002807D00B000A00A069411820007A
:1017D000FFF772FF92E7502080F31188BFF34F8F1D
:1017E000BFF36F8FFEE72000FFF78FFB86E785E7EB
:1017F00006B010BD38B506E068602D61291D33487C
:101800000068FFF77AFC314800680068002827D09C
:101810002E480068C06804682C480068C068C56825
:10182000281DFFF785FC2800696A8847E8690128B8
:10183000E9D1A86900198442DED30020009000237A
:10184000220000212800FFF75DFE002800D0DAE723
:10185000502080F31188BFF34F8FBFF36F8FFEE7E7
:101860001A4800681A490968184A1160184908603E
:1018700031BD80B5FFF7FEFC1148006800281BD180
:101880001648FFF71CFC1648FFF719FC13480F49D0
:10189000086013480E490860002210210A2000F059
:1018A000F6F80749086006480068002804D00D498A
:1018B0000348006800F010FCFFF7F9FC01BD0000D0
:1018C0001C30012020300120183B0008143001207A
:1018D0001830012004ED00E024300120782F012091
:1018E0008C2F0120203B0008134800684FF47A71C8
:1018F000B0FBF1F0114908607FF07F400F490968A3
:10190000B0FBF1F00E4908600B4800680A4909680D
:10191000B0FBF1F02D21B1FBF0F00A490860064858
:1019200000684FF47A71B0FBF1F0401E0649086080
:10193000072006490860704708000020C42F0120D6
:10194000C82F0120CC2F012014E000E010E000E0BF
:10195000EFF30980BFF36F8F244B1A681EF0100F4E
:1019600008BF20ED108A20E9F04F106008B44FF056
:10197000500080F31188BFF34F8FBFF36F8FFEF7D6
:101980000FFF4FF0000080F3118808BC1968086849
:10199000B0E8F04F1EF0100F08BFB0EC108A80F3D3
:1019A0000988BFF36F8F7047104B19680868B0E85B
:1019B000F04F80F30988BFF36F8F4FF0000080F382
:1019C000118870470A480068006880F3088862B68A
:1019D00061B6BFF34F8FBFF36F8F00DFDFF81400E6
:1019E000016841F47001016070470000D82F0120A8
:1019F00008ED00E088ED00E038B504000D00002C93
:101A000007D1502080F31188BFF34F8FBFF36F8F42
:101A1000FEE7FFF72FFC2168E26B206C424301EBED
:101A2000020060600020A0632068A0602168E26B73
:101A3000521E206C424301EB0200E0605FF0FF3079
:101A400084F844005FF0FF3084F84500002D12D187
:101A50002069002817D014F11000FEF71BFF0028A2
:101A600011D05FF08050DFF894160860BFF34F8FFD
:101A7000BFF36F8F07E014F11000FFF720FB14F1A4
:101A80002400FFF71CFBFFF712FC012032BDF8B564
:101A900006000D001700002E07D1502080F311889A
:101AA000BFF34F8FBFF36F8FFEE7002D01D10020F2
:101AB00001E005FB06F05430FFF7A0F90400002C0C
:101AC00008D014F1540200943B00DBB2290030002E
:101AD00000F002F82000F2BD38B51C00049D00297A
:101AE00001D12D6000E02A60E8632964012128000B
:101AF000FFF782FF85F850400020A86431BDF7B59C
:101B000005000E001F000024002D07D1502080F397
:101B10001188BFF34F8FBFF36F8FFEE7002E02D106
:101B2000286C002801D1012000E00020C0B200286C
:101B300007D1502080F31188BFF34F8FBFF36F8F11
:101B4000FEE7022F02D1E86B012801D1012000E05D
:101B50000020C0B2002807D1502080F31188BFF3C5
:101B60004F8FBFF36F8FFEE7FFF705F8002802D114
:101B70000298002801D1012000E00020C0B2002816
:101B800038D1502080F31188BFF34F8FBFF36F8F90
:101B9000FEE7029800286FD0002C03D16846FEF7BC
:101BA000C3FE0124FFF783FBFEF7ABFCFFF762FBEC
:101BB00095F9440010F1010F02D1002085F844008E
:101BC00095F9450010F1010F02D1002085F845007C
:101BD000FFF76DFB02A96846FEF7BCFE002865D141
:101BE000280000F06AFA00284AD1280000F014FA10
:101BF000FEF7B2FCFFF73EFBA86BE96B884201D30E
:101C0000022FC6D13A003100280000F0ADF9A96CCE
:101C100000290FD03900280000F099FA002827D0B9
:101C20005FF08050DFF8D4140860BFF34F8FBFF32C
:101C30006F8F1DE0696A00290FD015F12400FEF7AF
:101C400029FE002814D05FF08050DFF8B01408603F
:101C5000BFF34F8FBFF36F8F0AE0002808D05FF00B
:101C60008050DFF898140860BFF34F8FBFF36F8F79
:101C7000FFF71DFB01201FE0FFF719FB00201BE011
:101C8000029915F11000FEF7C7FD280000F0C4F915
:101C9000FEF762FC0028ADD15FF08050DFF85C14E5
:101CA0000860BFF34F8FBFF36F8FA3E7280000F0EA
:101CB000B3F9FEF751FC0020FEBD2DE9F843050005
:101CC0000E0014001F00002D07D1502080F3118852
:101CD000BFF34F8FBFF36F8FFEE7002E02D1286C4A
:101CE000002801D1012000E00020C0B2002807D167
:101CF000502080F31188BFF34F8FBFF36F8FFEE743
:101D0000022F02D1E86B012801D1012000E0002060
:101D1000C0B2002807D1502080F31188BFF34F8F45
:101D2000BFF36F8FFEE7FFF7EFFAEFF31188502054
:101D300080F31188BFF34F8FBFF36F8FA86BE96BF0
:101D4000884201D3022F2DD195F945903A003100F8
:101D5000280000F009F94FFA89F919F1010F1BD198
:101D6000A86C00280AD03900280000F0F0F90028FB
:101D700016D0002C14D00120206011E0686A0028E1
:101D80000ED015F12400FEF785FD002808D0002CA8
:101D900006D00120206003E019F1010985F8459083
:101DA000012000E0002088F31188BDE8F2832DE9CE
:101DB000F64182B0070088461E000024002F07D19C
:101DC000502080F31188BFF34F8FBFF36F8FFEE772
:101DD000B8F1000F02D1386C002801D1012000E0D9
:101DE0000020C0B2002807D1502080F31188BFF333
:101DF0004F8FBFF36F8FFEE7FEF7BDFE002802D1C5
:101E00000398002801D1012000E00020C0B2002882
:101E10000CD1502080F31188BFF34F8FBFF36F8F29
:101E2000FEE7380000F0F8F8FEF796FBFFF722FA1D
:101E3000BD6B002D06D1039800283CD1FFF737FA7F
:101E400000208EE0FC684146380000F0D0F8002EFB
:101E50001AD16D1EBD633868002802D1FEF756FF07
:101E600078603869002822D017F11000FEF712FDC3
:101E700000281CD05FF08050DFF880120860BFF3AC
:101E80004F8FBFF36F8F12E0FC60786A00280ED08E
:101E900017F12400FEF7FEFC002808D05FF0805008
:101EA000DFF858120860BFF34F8FBFF36F8FFFF753
:101EB000FEF9012055E0002C03D16846FEF734FD01
:101EC0000124FFF7F4F9FEF71CFBFFF7D3F997F9AC
:101ED000440010F1010F02D1002087F8440097F967
:101EE000450010F1010F02D1002087F84500FFF7EF
:101EF000DEF903A96846FEF72DFD002825D138003C
:101F000000F0CDF800288CD03868002806D1FFF703
:101F1000B1F97868FEF73FFEFFF7C9F9039917F1A9
:101F20002400FEF779FC380000F076F8FEF714FB89
:101F300000287FF47BAF5FF08050DFF8C0110860AD
:101F4000BFF34F8FBFF36F8F70E7380000F064F876
:101F5000FEF702FB380000F0A2F800283FF466AF5D
:101F6000002004B0BDE8F0812DE9F0410600150025
:101F70000027B46B306C002809D13068002831D1BB
:101F80007068FEF767FE0700002070602AE0002DF1
:101F90000FD1326CB568280000F014F9B068316CCC
:101FA0000844B060B068716888421BD33068B06084
:101FB00018E0326CD6F80C80404600F003F9F06867
:101FC000316C49420844F060F0683168884204D2BC
:101FD0007068316C49420844F060022D02D1002C37
:101FE00000D0641E641CB4633800BDE8F08110B5F5
:101FF0000C00016C00290ED0C168026C1144C16054
:10200000C1684268914201D30168C160026CC16835
:10201000200000F0D7F810BD38B50400FFF72AF90A
:1020200094F9455011E00021200000F090F80028BC
:102030000AD0FEF7D0FC07E014F12400FEF72AFCDA
:10204000002801D0FEF7C7FC6D1E6DB2012D05DB27
:10205000A06C0028E7D1606A0028EDD15FF0FF3066
:1020600084F84500FFF723F9FFF704F994F9445089
:1020700008E014F11000FEF70DFC002801D0FEF777
:10208000AAFC6D1E6DB2012D02DB20690028F0D183
:102090005FF0FF3084F84400FFF709F931BD10B557
:1020A0000400FFF7E7F8A06B002801D1012400E04D
:1020B0000024FFF7FCF8200010BD10B50400FFF766
:1020C000D9F8A06BE16B884201D1012400E0002423
:1020D000FFF7EDF8200010BD002300E05B1C082B8B
:1020E0000BD2074A52F83320002AF7D1044A42F8AB
:1020F0003310034901EBC3014860704704ED00E071
:10210000D42E012070B504000D001600FFF7B2F8C0
:1021100094F9440010F1010F02D1002084F844002A
:1021200094F9450010F1010F02D1002084F8450018
:10213000FFF7BDF8A06B002805D13200290014F18B
:102140002400FEF785FB2000FFF766FF70BD71B528
:1021500081B00A000198846C0025002C07D1502022
:1021600080F31188BFF34F8FBFF36F8FFEE7A06B33
:10217000E16B884207D3502080F31188BFF34F8F63
:10218000BFF36F8FFEE7A06BE16B884218D294F922
:10219000456001A92000FFF7E7FE050076B216F1C1
:1021A000010F0AD1606A00280AD014F12400FEF75A
:1021B00071FB002804D0012502E0761C84F84560FC
:1021C000280076BD62B38B0708D0521E11F8013B80
:1021D00000F8013B00F024808B07F6D1830740F024
:1021E000208000BF103A07D330B4B1E83810103A5D
:1021F000A0E83810F9D230BC530724BFB1E808106A
:10220000A0E8081044BF51F8043B40F8043BD20753
:1022100024BF31F8022B20F8022B44BF0B78037047
:102220007047121F17D35B0009D151F8043B20F807
:10223000023B1B0C121F20F8023BF6D20BE051F8B8
:10224000043B00F8013B1B0A20F8023B1B0C121F49
:1022500000F8013BF3D238BF121D521E24BF11F803
:10226000013B00F8013BF8D87047000010B50400AE
:10227000002C01D1012033E0A0690028FFD194F89F
:102280003D00002805D1002084F83C00200000F02B
:10229000FFFA242084F83D002068C06830F4005024
:1022A0002168C860200000F0F2F92068006930F46D
:1022B0009040216808612068406930F02A00216858
:1022C00048612068C06850F400502168C860002050
:1022D0002064202084F83D00202084F83E00002067
:1022E00010BD38B50400206801682068C268206805
:1022F00043690020002011F00F00002807D18D064F
:1023000005D5950603D5200000F05DF9F6E000281C
:1023100072D0D80702D412F4907F6DD011F0010072
:10232000C0B2002805D0D00503D5206C50F00100C4
:102330002064480708D513F00100C0B2002803D07C
:10234000206C50F002002064880708D513F00100CB
:10235000C0B2002803D0206C50F0040020640807AD
:102360000AD5900604D413F00103DBB2002B03D08E
:10237000206C50F008002064206C00283BD08806B8
:1023800004D5900602D5200000F01DF920684069B0
:10239000800910F00100216C090701D4002825D024
:1023A000200000F0ACF82068406940061AD520688B
:1023B000406930F0400021684861A06B00280DD0D2
:1023C0000FF27110A16B0865A06B00F0FBFA0028FA
:1023D00011D0A06BA16B096D88470CE0200000F0C4
:1023E00004FB08E0200000F000FB04E0200000F007
:1023F000FCFA0020206481E0206B01286ED1C80621
:102400006CD5D0066AD50020009020680068009046
:10241000206840680090009820684069400638D5E0
:10242000A06B0068406880B2002831D00100A28D06
:1024300089B291422CD2E085A06BC069B0F5807F53
:102440001FD02068C06830F480702168C8602068A0
:10245000406940084000216848612068406930F0C8
:10246000400021684861202084F83E00002020635D
:102470002068C06830F010002168C860A06B00F0D0
:1024800053FAA18DE08D091A89B2200000F0AEFA4E
:1024900034E0A08DE18D411AE08D00281DD089B275
:1024A00000291AD02068C06830F490702268D0608B
:1024B000206840694008400022685061202084F86C
:1024C0003E00002020632068C06830F010002268C1
:1024D000D06089B2200000F089FA0FE0080605D527
:1024E000100603D5200000F02FF807E0480605D5B8
:1024F000500603D5200000F058F8FFE731BD016811
:10250000C96831F490710268D1600168496949086D
:10251000490002685161016B012905D10168C96850
:1025200031F010010268D160202180F83E100021B6
:102530000163704780B5806B0021C1850021C18493
:1025400000F053FA01BD000090F83D1021292AD176
:102550008168B1F5805F0CD10169002909D1016A58
:102560000988C905C90D02685160016A891C0162A8
:1025700005E0016A4A1C0262097802685160C18C58
:10258000491EC18489B200290BD10168C96831F0A4
:1025900080010268D1600168C96851F0400100689B
:1025A000C160002000E00220704780B50168C96862
:1025B00031F040010268D160202180F83D1000F028
:1025C00016FA002002BD10B5040094F83E0022283F
:1025D0005BD1A068B0F5805F0DD1206900280AD1D9
:1025E0000020A06A21684968C905C90D0180A06A58
:1025F000801CA06217E0A16A0020A068B0F5805F8F
:1026000005D0A068002806D12069002803D12068E1
:102610004068087004E02068406810F07F0008708F
:10262000A06A401CA062E08D401EE08580B20028B8
:1026300029D12068C06830F020002168C860206877
:10264000C06830F480702168C86020684069400824
:10265000400021684861202084F83E00206B01285A
:102660000AD12068C06830F010002168C860A18DD0
:10267000200000F0BBF902E0200000F0B9F90020D2
:102680002063002002E0002000E0022010BDF8B529
:1026900004002068016931F44051E068014320687A
:1026A0000161A1682069014360690143E069014358
:1026B0002068C2686248024011432068C1602068F7
:1026C000416931F44071A06901432068416120688B
:1026D0005C49884203D020685B49884203D100F0FE
:1026E0003DFA050002E000F02EFA0500E069B0F5C1
:1026F000004F52D11920A0FB050162680223A3FB01
:10270000022300F089FA6421B0FBF1F61920A0FB46
:10271000050162680223A3FB022300F07DFA070093
:102720001920A0FB050162680223A3FB022300F02D
:1027300073FA6421B0FBF1F1642000FB1171C80051
:1027400032306421B0FBF1F77F0017F4F87717EB14
:1027500006171920A0FB050162680223A3FB0223D0
:1027600000F05AFA06001920A0FB05016268022356
:10277000A3FB022300F050FA6421B0FBF1F16420C6
:1027800000FB1166F00032306421B0FBF1F010F074
:102790000700C7192068876050E01920A0FB0501D9
:1027A00062680423A3FB022300F036FA6421B0FB25
:1027B000F1F61920A0FB050162680423A3FB0223A4
:1027C00000F02AFA07001920A0FB05016268042323
:1027D000A3FB022300F020FA6421B0FBF1F1642096
:1027E00000FB1171080132306421B0FBF1F717F0E2
:1027F000F00717EB06171920A0FB050162680423F8
:10280000A3FB022300F008FA06001920A0FB050133
:1028100062680423A3FB022300F0FEF96421B0FBED
:10282000F1F1642000FB1166300132306421B0FB0D
:10283000F1F010F00F00C71920688760F1BD0000AB
:10284000F369FFFF001001400014014080B53048DB
:10285000304908605FF4E1302E49486000202D497E
:10286000886000202B49C86000202A4908610C209C
:102870002849486100202749886100202549C8610E
:102880002448FFF7F3FC002801D000F04BF801BD0D
:1028900010B586B0040001A8142100F0D5FA206814
:1028A0001B49884232D1002000901B48006850F03C
:1028B0001000194908601848006810F010000090D6
:1028C0000098002000901548006850F0010013495E
:1028D00008601248006810F00100009000984FF462
:1028E000C060019002200290002003900320049019
:1028F0000720059001A90A4800F0AAFA0022002149
:10290000252000F02CFC252000F03AFC06B010BD7C
:1029100000100140902E012044380240303802401F
:102920000000024072B6FEE770B50400A56D00F02D
:1029300041FC060094F83500022806D0802060652E
:10294000002084F8340001203BE02068006830F06B
:102950001600216808602068406930F08000216816
:102960004861206C002802D1A06C002805D02068A6
:10297000006830F00800216808602068006840089E
:1029800040002168086020680068C0070ED500F08C
:1029900011FC801B0628F6D320206065002084F8F7
:1029A0003400032084F8350003200AE03F21E06D65
:1029B0008140A960002084F83400012084F83500AB
:1029C000002070BD90F83510022903D080214165A8
:1029D000012009E0052180F83510016809684908DF
:1029E00049000068016000207047704770477047D9
:1029F0007047000070B504000D00002C01D10120CB
:102A00009DE05C48006810F00700A84209D25948D0
:102A100005705848006810F00700A84201D0012056
:102A20008DE02078800719D52078400705D55248D9
:102A3000006850F4E050504908602078000705D540
:102A40004D48006850F460404B4908604A480168AE
:102A500031F0F001A0680143474801602078C007C9
:102A600036D56068012805D144480068800313D436
:102A7000012064E06068022802D06068032805D164
:102A80003E480068800107D4012058E03B480068B8
:102A9000800701D4012052E0374801688908890085
:102AA000606801433448016000F084FB060032484E
:102AB000006810F00C006168B0EB810F08D000F0E6
:102AC00079FB801B41F289318842F0D3032036E044
:102AD0002848006810F00700854209D22548057093
:102AE0002448006810F00700A84201D0012026E029
:102AF0002078400707D52048016831F4E051E068AC
:102B000001431D4801602078000708D51A48006875
:102B100030F46040216950EAC1001749086000F0B4
:102B200037F81749144A1268C2F30312895CC84087
:102B3000144908601448006800F042FB002070BD92
:102B400010480068704780B5FFF7FAFF0F490A4A3E
:102B50001268C2F38222895CC84002BD80B5FFF7CB
:102B6000EFFF0A49044A1268C2F34232895CC84046
:102B700002BD0000003C024008380240003802401C
:102B8000B43A00080800002004000020083B0008B8
:102B900000B500200020002000201B48006810F035
:102BA0000C00002804D0042804D0082804D029E010
:102BB000164828E0164826E01648026812F03F0240
:102BC0001448006840020AD512480068C0F3881013
:102BD0000F49A1FB0001002300F01EF809E00D4899
:102BE0000068C0F388100949A1FB0001002300F030
:102BF00013F808490968C1F30141491C4900B0FBB9
:102C0000F1F000E0014800BD083802400024F40063
:102C100000127A0004380240B3BBD9B1B2F5803F4C
:102C20007DD2022A1ED98C46B1FBF2F102FB11C300
:102C30001B0443EA1043B3FBF2FC02FB1C3380B2DB
:102C400040EA0343B3FBF2F002FB103240EA0C40CF
:102C500000237047022A05D98446B0FBF2F002FB3C
:102C600010C270474AB105D100F0010249085FEA7D
:102C70003000704700220023704700F0C7BA0B00F5
:102C80000200002100207047904271EB030CF6D344
:102C9000B3F5803F2FD2F0B5B3FA83F7B1FA81F4E0
:102CA000A7F10F0E3D1B5340CEF1200602FA0EF2A3
:102CB000F3415340B5F10F0746D80F3C2C44414037
:102CC000C4F12006A040F1414140B1FBF3F603FB03
:102CD0001611A2FB0645001BA94102D2761E8018E0
:102CE000594180EA010221FA0EF362FA0EF2002144
:102CF0005A403046F0BD30B4B1FBF3FC03FB1C116D
:102D0000A2FB0C45001BA94103D2ACF1010C8018B9
:102D1000594130BC02460B46604600217047B2F173
:102D2000807F65D3F0B5B2FA82F7B1FA81F4C7F1CA
:102D30000F063D1B22FA06F307F1110EF241203572
:102D40005A40B5F10F07B8D94140C4F12006A04060
:102D5000F1414140B1FBF3FC03FB1C11A2FB0C450C
:102D6000001BA94103D2BCF1010C801859410F2F5F
:102D700012D30F3FC90341EA5041B1FBF3F603FB05
:102D80001611A2FB0645D4EBC030A94102D2761E33
:102D90008018594146EACC3C07B34140C7F12006B0
:102DA000B840F1414140B1FBF3F603FB1611A2FB21
:102DB0000645001BA94102D2761E8018594180EABF
:102DC000010221FA0EF3C7F1200462FA0EF20CFAA6
:102DD00007F05A402CFA04F13043F0BD80EA0102BA
:102DE00021FA0EF3002162FA0EF260465A40F0BD5D
:102DF0008C46B1FBF2F102FB11C31B0243EA1063E4
:102E0000B3FBF2FC02FB1C331B024CEA002043EA3A
:102E10001063B3FBF2FC02FB1C331B024CEA0020E4
:102E200043EA1063B3FBF2FC02FB1C331B024CEAC7
:102E3000002043EA1063B3FBF2FC02FB1C324CEAB5
:102E40000020002370470000002200F0E1B90000DC
:102E500078B4002200220022002341E0082604E08A
:102E6000DFF8EC219042F9D10726F6B213F0030205
:102E7000D2B2920096403543DFF8D8211E00B60842
:102E800042F82650DFF8D0211268A2434D68ED03C6
:102E900000D52243DFF8C0512A60DFF8C021126854
:102EA000A2434D68AD0300D52243DFF8B0512A603C
:102EB000DFF8AC211268A2434D68ED0200D5224331
:102EC000DFF89C512A60DFF89C211268A2434D680C
:102ED000AD0201D514432200DFF8884122605B1C5B
:102EE000102B80F0A98001229A400C681440944273
:102EF000F5D10A7912F00302012A04D00A7912F0FE
:102F00000302022A17D1856803261A00D2B25200A2
:102F10009640B543CE681A00D2B25200964035436F
:102F20008560426801259D40AA434D68C5F30015A0
:102F30009D402A4342600A7912F00302032A0DD011
:102F4000C56803261A00D2B252009640B5438E6877
:102F50001A00D2B2520096403543C5600A7912F089
:102F60000302022A17D11A00D20800EB8202156A66
:102F70000F2613F00702D2B292009640B5430E69B5
:102F800013F00702D2B29200964035431A00D208DD
:102F900000EB82021562056803261A00D2B25200C5
:102FA0009640B5430E7916F003061A00D2B25200CD
:102FB0009640354305604A68D20090D500220092C1
:102FC000294A126852F48042274D2A60264A126824
:102FD00012F480420092009A1E4A1D00AD0852F879
:102FE00025500F2613F00302D2B292009640B5434B
:102FF0001E4A904201D1002637E71D4A904201D176
:10300000012632E71B4A904201D102262DE71A4AD7
:10301000904201D1032628E7184A904201D10426A4
:1030200023E7174A904201D105261EE7154A904230
:103030007FF416AF062618E771BC7047D2B2002A9B
:1030400002D089B2816102E089B2090481617047CE
:10305000001C024008380140003C0140043C014093
:10306000083C01400C3C0140443802400000024052
:103070000004024000080240000C02400010024020
:10308000001402400018024010F0070041490A688D
:103090004FF6FF010A40404951EA00210A433D48EA
:1030A000026070473B480068C0F30220704740B29E
:1030B000002808D4012210F01F018A40374940B28D
:1030C000400941F82020704740B2002804D409018B
:1030D000334A40B2115407E00901324A40B210F0BD
:1030E0000F00104400F8041C704710B410F00700E3
:1030F000D0F10703052B01D3042301E0D0F107032E
:10310000041D072C01D2002000E0C01E012414FA87
:1031100003F35B1E19408140012313FA00F0401EA7
:103120001040084310BC704780B5411EB1F1807F4C
:1031300001D301200EE0401E1B4908600F215FF003
:10314000FF30FFF7C1FF0020184908600720184929
:103150000860002002BD80B5FFF796FF01BD70B585
:1031600004000D0016000020FFF79CFF320029002C
:10317000FFF7BBFF0100200040B2FFF7A5FF70BDC5
:1031800080B540B2FFF793FF01BD80B5FFF7CCFFDC
:1031900002BD00000CED00E00000FA0500E100E0D7
:1031A00000E400E018ED00E014E000E018E000E0CA
:1031B00010E000E001480068704700BFD42F0120F4
:1031C00010B504004FF47A700D490978B0FBF1F0A6
:1031D0000C490968B1FBF0F0FFF7D7FF002801D0D8
:1031E00001200CE0102C09D2002221005FF0FF30FA
:1031F000FFF7B5FF04480460002000E0012010BD87
:103200000C0000200800002004000020704700008F
:1032100000B500BF130096469446103928BFA0E8B9
:103220000C50FAD85FEA417C28BF0CC048BF40F878
:10323000042BC90728BF20F8022B48BF00F8012B38
:1032400000BD00007CB50400002C01D10120EDE19F
:103250002078C0076FD5DFF8D803006810F00C00A5
:1032600004280BD0DFF8C803006810F00C00082811
:103270000ED1DFF8C0030068400209D5DFF8B803BB
:103280000068800357D56068002854D10120CDE143
:103290006068B0F5803F08D1DFF89C03006850F407
:1032A0008030DFF89413086024E06068B0F5A02F48
:1032B00010D1DFF88403006850F48020DFF8781321
:1032C0000860DFF87403006850F48030DFF868139A
:1032D00008600FE0DFF86003006830F48030DFF84A
:1032E00058130860DFF85003006830F48020DFF8DE
:1032F00048130860606800280ED0FFF75BFF0500E8
:10330000DFF834030068800315D4FFF753FF401B38
:103310006528F5D3032089E1FFF74CFF0500DFF8AE
:1033200018030068800306D5FFF744FF401B65289B
:10333000F5D303207AE12078800724D5DFF8F00266
:10334000006810F00C0F0BD0DFF8E402006810F0FA
:103350000C0008282ED1DFF8DC020068400229D4D6
:10336000DFF8D4020068800704D5E068012801D0A6
:1033700001205BE1B048006830F0F800216950EAB4
:10338000C100AD4908602078000753D56069002866
:103390003FD00120A9490860FFF70CFF0500A848AD
:1033A0000068800746D4FFF705FF401B0328F6D3CB
:1033B00003203BE1E06800281AD00120A149086001
:1033C000FFF7F8FE05009C480068800706D4FFF769
:1033D000F1FE401B0328F6D3032027E1964800683E
:1033E00030F0F800216950EAC10093490860CAE74B
:1033F000002094490860FFF7DDFE05008E48006854
:103400008007C0D5FFF7D6FE401B0328F6D3032064
:103410000CE1002089490860FFF7CCFE05008848D0
:103420000068800706D5FFF7C5FE401B0328F6D3CA
:103430000320FBE0207840077DD500258248006806
:10344000C0000ED4002000907F48006850F08050EB
:103450007D4908607C48006810F08050009000981A
:1034600001257A480068C00513D47848006850F4F4
:10347000807076490860FFF79DFE0600734800687B
:10348000C00506D4FFF796FE801B0328F6D3032061
:10349000CCE0A068012806D16D48006850F001001A
:1034A0006B4908601BE0A06805280CD168480068DB
:1034B00050F00400664908606548006850F001005B
:1034C000634908600BE062480068400840006049BA
:1034D00008605F48006830F004005D490860A0683B
:1034E00000280FD0FFF766FE0600594800688007E5
:1034F00018D4FFF75FFE801B41F289318842F4D374
:10350000032093E0FFF756FE06005148006880074D
:1035100008D5FFF74FFE801B41F289318842F4D372
:10352000032083E0EDB2012D05D14748006830F05B
:10353000805045490860A069002876D03C48006862
:1035400010F00C00082845D0A069022831D10020D5
:1035500040490860FFF72EFE0500374800688001EB
:1035600006D5FFF727FE401B0328F6D303205DE0B6
:10357000E169206A0143606A51EA8011A06A40084B
:10358000401E51EA0041E06A51EA006129480160A9
:10359000012030490860FFF70DFE0400264800684E
:1035A000800142D4FFF706FE001B0328F6D3032058
:1035B0003CE0002027490860FFF7FCFD04001E489E
:1035C0000068800131D5FFF7F5FD001B0328F6D315
:1035D00003202BE0A069012801D1012026E0154835
:1035E0000068A16901291ED010F48001E2699142AE
:1035F00019D110F03F01226A914214D147F6C071EF
:103600000140626AB1EB821F0DD110F44031A26A11
:103610005208521EB1EB024F05D110F07060E16A02
:10362000B0EB016F01D0012000E0002076BD00BFAB
:10363000083802400438024000380240800E4742F9
:103640007438024000004742403802400070004099
:103650007038024060004742E0B500F075F800F0B5
:1036600099F800F0F9F8FFF7F1F801202F480190E0
:103670000120009000234FF400722D490FF2110039
:10368000FCF782FD012801D1FCF705FFFEE70000F1
:10369000E0B50120FDF7EEFD2648019002200090E4
:1036A0000023802224490FF23100FCF76DFD2348EE
:1036B0000190022000900023802221490FF2410056
:1036C000FCF762FD012803D118480068FCF74DFEA5
:1036D000FDF7EDFD07BD000080B501224FF48041EC
:1036E0001848FFF7ABFC6420FCF7AFFE00224FF454
:1036F00080411448FFF7A2FC6420FCF7A6FEECE72B
:1037000080B500224FF400510E48FFF797FC4FF4AC
:10371000FA70FCF79AFE01224FF400510948FFF7B6
:103720008DFC4FF4FA70FCF790FEEAE7A82F012019
:10373000A43A0008AC2F0120E43A0008B02F012081
:10374000F03A00080018024080B51048006850F4B4
:1037500000700E4908600D48006850F480600B4905
:1037600008600A48006850F4807008490860032027
:10377000FFF7F1FC0020FFF723FD00F0C5F8002063
:1037800002BD03480068000C70470000003C024086
:10379000002004E080B592B00020002000902B486B
:1037A000006850F08050294908602848006810F0EF
:1037B000805000900098002000902548006850F448
:1037C0008040234908602248006810F4804000903F
:1037D0000098012006905FF48030079002200C9042
:1037E0005FF480000D9008200E904FF4A8700F90A9
:1037F000022010900720119006A8FFF723FDC0B209
:10380000002800D0FEE70F20019002200290002047
:1038100003904FF4A05004904FF480500590052180
:1038200001A8FFF7E7F8C0B2002800D0FEE7FFF7D5
:10383000A8FF41F20101884205D10648006850F412
:1038400080700449086013B000BD00004038024099
:1038500000700040003C024080B586B001A81421F1
:10386000FFF7F2FA002000902548006850F0800031
:10387000234908602248006810F0800000900098FA
:10388000002000901E48006850F001001C490860AC
:103890001B48006810F00100009000980020009084
:1038A0001748006850F04000154908601448006847
:1038B00010F0400000900098002000901048006830
:1038C00050F002000E4908600D48006810F0020038
:1038D0000090009800224FF4C0410A48FFF7AEFB69
:1038E0004FF4C0400190012002900020039000207E
:1038F000049001A90348FFF7ABFA07B000BD00BF71
:10390000303802400018024081B0002000900E487C
:10391000006850F480400C4908600B48006810F4BF
:10392000804000900098002000900848006850F007
:103930008050064908600548006810F080500090EB
:10394000009801B0704700BF443802404038024040
:1039500019E050F8042BD30744BFA9F101039A18CA
:10396000091F0023042942F8043BF9D25FEA817C55
:10397000134604D54FF0000CA2F800C09B1CC907E9
:1039800044BF0021197050F8041B0029E1D1704791
:1039900010B450F8041B79B102684368024408303F
:1039A000DC0744BFA9F10104E31852F8044B43F8C3
:1039B000044B091FF9D1ECE710BC704710B507495B
:1039C00079441831064C7C44163404E00A68081D1A
:1039D000114488470146A142F8D110BD2C000000D7
:1039E0004C0000004EF68851CEF20001086840F409
:1039F00070000860BFF34F8FBFF36F8F4FF0007000
:103A0000E1EE100A7047000049FFFFFF1C30010083
:103A1000100000200000000079FFFFFF10000000F0
:103A2000B4000000000000200000000000F00DF8CD
:103A3000002801D0FFF7C2FFAFF300800020AFF3F2
:103A40000080FFF709FE00F002F80120704700F047
:103A500001B800000746384600F002F8FBE7000016
:103A600080B5AFF30080024A11001820ABBEFBE71F
:103A700026000200FEE7FEE7FEE7FEE7FEE77047EE
:103A800080B50248FEF72DFC01BD0000902E0120FC
:103A90000348006850F47000014908607047000056
:103AA00088ED00E04170705461736B43726561741E
:103AB0006500000000000000000000000102030497
:103AC000060708090148804701480047913A000865
:103AD000FD3A0008AAAAAAAA100000000024F400D7
:103AE000010000004C4544315F5461736B000000DD
:103AF0004C4544325F5461736B000000AFF30080AB
:103B0000FFF770FFFFF792FF0000000001020304BF
:103B100049444C4500000000546D72205376630008
:103B2000546D72510000000008000000F0E300E056
:103B3000FFF7FEBFFFF7FEBFFFF7FEBFFFF7FEBFB9
:103B4000FFF7FEBFFFF7FEBFFFF7FEBFFFF7FEBFA9
:103B5000FFF7FEBFFFF7FEBFFFF7FEBFFFF7FEBF99
:103B6000FFF7FEBFFFF7FEBFFFF7FEBFFFF7FEBF89
:103B7000FFF7FEBFFFF7FEBFFFF7FEBFFFF7FEBF79
:103B8000FFF7FEBFFFF7FEBFFFF7FEBFFFF7FEBF69
:103B9000FFF7FEBFFFF7FEBFFFF7FEBFFFF7FEBF59
:103BA000FFF7FEBFFFF7FEBFFFF7FEBFFFF7FEBF49
:103BB000FFF7FEBFFFF7FEBFFFF7FEBFFFF7FEBF39
:103BC000FFF7FEBFFFF7FEBFFFF7FEBFFFF7FEBF29
:103BD000FFF7FEBFFFF7FEBFFFF7FEBFFFF7FEBF19
:103BE000FFF7FEBFFFF7FEBFFFF7FEBFFFF7FEBF09
:103BF000FFF7FEBFFFF7FEBFFFF7FEBFFFF7FEBFF9
:103C0000FFF7FEBFFFF7FEBFFFF7FEBFFFF7FEBFE8
:103C1000FFF7FEBFFFF7FEBFFFF7FEBFFFF7FEBFD8
:103C2000FFF7FEBFFFF7FEBFFFF7FEBFFFF7FEBFC8
:103C3000FFF7FEBFFFF7FEBFFFF7FEBFFFF7FEBFB8
:103C4000FFF7FEBFFFF7FEBFFFF7FEBFFFF7FEBFA8
:103C5000FFF7FEBFFFF7FEBFFFF7FEBFFFF7FEBF98
:103C6000FFF7FEBFFFF7FEBFFFF7FEBFFFF7FEBF88
:0400000508003AFDB8
:00000001FF
