:020000040800F2
:1000000058040020951900088D1800088F18000862
:1000100091180008931800089518000800000000C7
:100020000000000000000000000000009718000819
:1000300099180008000000009B1800089D1800088F
:10004000B9190008BD190008C1190008C519000830
:10005000C9190008CD190008D1190008D5190008E0
:10006000D9190008DD190008E1190008E519000890
:10007000E9190008ED190008F1190008F519000840
:10008000F9190008FD190008011A0008051A0008EE
:10009000091A00080D1A0008111A0008151A00089C
:1000A000191A00081D1A0008211A0008251A00084C
:1000B000291A00082D1A0008311A0008351A0008FC
:1000C000391A00083D1A0008411A0008451A0008AC
:1000D000491A0008A51800084D1A0008511A00080E
:1000E000551A0008591A00085D1A0008611A00081C
:1000F000651A0008691A00086D1A0008711A0008CC
:10010000751A0008791A00087D1A0008811A00087B
:10011000851A0008891A00088D1A0008911A00082B
:10012000951A0008991A00089D1A0008A11A0008DB
:10013000A51A0008A91A0008AD1A0008B11A00088B
:10014000B51A0008B91A0008BD1A0008C11A00083B
:10015000C51A0008C91A0008CD1A0008D11A0008EB
:10016000D51A0008D91A0008DD1A0008E11A00089B
:10017000E51A0008E91A0008ED1A0008000000005E
:10018000F11A0008F51A000810B50400002C01D17E
:10019000012033E0A0690028FFD194F83D00002839
:1001A00005D1002084F83C00200000F0FFFA242054
:1001B00084F83D002068C06830F400502168C860B1
:1001C000200000F0F2F92068006930F490402168C6
:1001D00008612068406930F02A0021684861206881
:1001E000C06850F400502168C860002020642020BE
:1001F00084F83D00202084F83E00002010BD38B572
:100200000400206801682068C268206843690020F3
:10021000002011F00F00002807D18D0605D59506A6
:1002200003D5200000F05DF9F6E0002872D0D80771
:1002300002D412F4907F6DD011F00100C0B20028FA
:1002400005D0D00503D5206C50F00100206448078C
:1002500008D513F00100C0B2002803D0206C50F084
:1002600002002064880708D513F00100C0B20028FE
:1002700003D0206C50F00400206408070AD59006D3
:1002800004D413F00103DBB2002B03D0206C50F038
:1002900008002064206C00283BD0880604D5900616
:1002A00002D5200000F01DF920684069800910F097
:1002B0000100216C090701D4002825D0200000F09E
:1002C000ACF82068406940061AD52068406930F0D3
:1002D000400021684861A06B00280DD00FF271101A
:1002E000A16B0865A06B00F0F9FA002811D0A06B93
:1002F000A16B096D88470CE0200000F002FB08E0CC
:10030000200000F0FEFA04E0200000F0FAFA0020DD
:10031000206481E0206B01286ED1C8066CD5D00620
:100320006AD500200090206800680090206840682E
:100330000090009820684069400638D5A06B00689E
:10034000406880B2002831D00100A28D89B291426C
:100350002CD2E085A06BC069B0F5807F1FD02068EB
:10036000C06830F480702168C86020684069400827
:100370004000216848612068406930F040002168F1
:100380004861202084F83E00002020632068C06877
:1003900030F010002168C860A06B00F051FAA18D08
:1003A000E08D091A89B2200000F0ACFA34E0A08D8B
:1003B000E18D411AE08D00281DD089B200291AD0A4
:1003C0002068C06830F490702268D060206840696E
:1003D0004008400022685061202084F83E00002040
:1003E00020632068C06830F010002268D06089B2B5
:1003F000200000F087FA0FE0080605D5100603D5A7
:10040000200000F02FF807E0480605D5500603D578
:10041000200000F058F8FFE731BD0168C96831F4E9
:1004200090710268D1600168496949084900026811
:100430005161016B012905D10168C96831F01001D2
:100440000268D160202180F83E10002101637047CE
:1004500080B5806B0021C1850021C18400F051FA74
:1004600001BD000090F83D1021292AD18168B1F525
:10047000805F0CD10169002909D1016A0988C90589
:10048000C90D02685160016A891C016205E0016AB8
:100490004A1C0262097802685160C18C491EC184FD
:1004A00089B200290BD10168C96831F08001026866
:1004B000D1600168C96851F040010068C160002046
:1004C00000E00220704780B50168C96831F0400142
:1004D0000268D160202180F83D1000F014FA00205D
:1004E00002BD10B5040094F83E0022285BD1A0683C
:1004F000B0F5805F0DD1206900280AD10020A06AE4
:1005000021684968C905C90D0180A06A801CA062E4
:1005100017E0A16A0020A068B0F5805F05D0A06850
:10052000002806D12069002803D12068406808709F
:1005300004E02068406810F07F000870A06A401C4A
:10054000A062E08D401EE08580B2002829D120689D
:10055000C06830F020002168C8602068C06830F4AE
:1005600080702168C86020684069400840002168A8
:100570004861202084F83E00206B01280AD12068C1
:10058000C06830F010002168C860A18D200000F024
:10059000B9F902E0200000F0B7F900202063002044
:1005A00002E0002000E0022010BDF8B50400206841
:1005B000016931F44051E068014320680161A1689C
:1005C0002069014360690143E06901432068C26812
:1005D0006248024011432068C1602068416931F4DB
:1005E0004071A06901432068416120685C498842EC
:1005F00003D020685B49884203D100F03BFA050034
:1006000002E000F02CFA0500E069B0F5004F52D18D
:100610001920A0FB050162680223A3FB022300F05E
:1006200087FA6421B0FBF1F61920A0FB050162688E
:100630000223A3FB022300F07BFA07001920A0FB92
:10064000050162680223A3FB022300F071FA642112
:10065000B0FBF1F1642000FB1171C800323064215D
:10066000B0FBF1F77F0017F4F87717EB06171920A6
:10067000A0FB050162680223A3FB022300F058FAE5
:1006800006001920A0FB050162680223A3FB0223D8
:1006900000F04EFA6421B0FBF1F1642000FB11661A
:1006A000F00032306421B0FBF1F010F00700C71900
:1006B0002068876050E01920A0FB050162680423D0
:1006C000A3FB022300F034FA6421B0FBF1F61920F9
:1006D000A0FB050162680423A3FB022300F028FAB3
:1006E00007001920A0FB050162680423A3FB022375
:1006F00000F01EFA6421B0FBF1F1642000FB1171DF
:10070000080132306421B0FBF1F717F0F00717EB66
:1007100006171920A0FB050162680423A3FB02232E
:1007200000F006FA06001920A0FB05016268042308
:10073000A3FB022300F0FCF96421B0FBF1F164207B
:1007400000FB1166300132306421B0FBF1F010F093
:100750000F00C71920688760F1BD0000F369FFFF33
:10076000001001400014014080B530483049086055
:100770005FF4E1302E49486000202D498860002058
:100780002B49C86000202A4908610C20284948618B
:1007900000202749886100202549C8612448FFF7C7
:1007A000F3FC002801D000F0FDFA01BD10B586B0C1
:1007B000040001A8142100F0F7FA20681B498842C0
:1007C00032D1002000901B48006850F010001949F9
:1007D00008601848006810F0100000900098002091
:1007E00000901548006850F0010013490860124855
:1007F000006810F00100009000984FF4C060019074
:10080000022002900020039003200490072005900E
:1008100001A90A4800F0CCFA00220021252000F0AE
:100820004EFC252000F05CFC06B010BD001001401D
:1008300010000020443802403038024000000240DE
:1008400070B50400A56D00F075FC060094F8350045
:10085000022806D080206065002084F83400012042
:100860003BE02068006830F01600216808602068CE
:10087000406930F0800021684861206C002802D176
:10088000A06C002805D02068006830F008002168BE
:1008900008602068006840084000216808602068FF
:1008A0000068C0070ED500F045FC801B0628F6D373
:1008B00020206065002084F83400032084F835008F
:1008C00003200AE03F21E06D8140A960002084F808
:1008D0003400012084F83500002070BD90F83510F8
:1008E000022903D080214165012009E0052180F81B
:1008F0003510016809684908490000680160002056
:1009000070477047704770477047000070B504002B
:100910000D00002C01D101209DE05C48006810F022
:100920000700A84209D2594805705848006810F0DD
:100930000700A84201D001208DE02078800719D55A
:100940002078400705D55248006850F4E0505049DF
:1009500008602078000705D54D48006850F46040D5
:100960004B4908604A48016831F0F001A068014332
:10097000474801602078C00736D56068012805D156
:1009800044480068800313D4012064E060680228B2
:1009900002D06068032805D13E480068800107D472
:1009A000012058E03B480068800701D4012052E054
:1009B000374801688908890060680143344801604C
:1009C00000F0B8FB06003248006810F00C006168C7
:1009D000B0EB810F08D000F0ADFB801B41F28931F4
:1009E0008842F0D3032036E02848006810F0070062
:1009F000854209D2254805702448006810F0070098
:100A0000A84201D0012026E02078400707D52048E1
:100A1000016831F4E051E06801431D48016020782D
:100A2000000708D51A48006830F46040216950EA90
:100A3000C1001749086000F037F81749144A1268D6
:100A4000C2F30312895CC840144908601448006866
:100A500000F076FB002070BD10480068704780B53C
:100A6000FFF7FAFF0F490A4A1268C2F38222895C33
:100A7000C84002BD80B5FFF7EFFF0A49044A12687B
:100A8000C2F34232895CC84002BD0000003C024013
:100A90000838024000380240841900080400002091
:100AA00000000020B019000800B500200020002040
:100AB00000201B48006810F00C00002804D0042817
:100AC00004D0082804D029E0164828E0164826E07B
:100AD0001648026812F03F021448006840020AD526
:100AE00012480068C0F388100F49A1FB00010023E1
:100AF00000F01EF809E00D480068C0F388100949AD
:100B0000A1FB0001002300F013F808490968C1F3B4
:100B10000141491C4900B0FBF1F000E0014800BD73
:100B2000083802400024F40000127A000438024021
:100B3000B3BBD9B1B2F5803F7DD2022A1ED98C4613
:100B4000B1FBF2F102FB11C31B0443EA1043B3FBF8
:100B5000F2FC02FB1C3380B240EA0343B3FBF2F029
:100B600002FB103240EA0C4000237047022A05D9EC
:100B70008446B0FBF2F002FB10C270474AB105D1C7
:100B800000F0010249085FEA3000704700220023AC
:100B9000704700F0FBBA0B000200002100207047F4
:100BA000904271EB030CF6D3B3F5803F2FD2F0B532
:100BB000B3FA83F7B1FA81F4A7F10F0E3D1B53404E
:100BC000CEF1200602FA0EF2F3415340B5F10F07C1
:100BD00046D80F3C2C444140C4F12006A040F141CE
:100BE0004140B1FBF3F603FB1611A2FB0645001BC7
:100BF000A94102D2761E8018594180EA010221FAE9
:100C00000EF362FA0EF200215A403046F0BD30B4C5
:100C1000B1FBF3FC03FB1C11A2FB0C45001BA9411B
:100C200003D2ACF1010C8018594130BC02460B468E
:100C3000604600217047B2F1807F65D3F0B5B2FA0B
:100C400082F7B1FA81F4C7F10F063D1B22FA06F3D1
:100C500007F1110EF24120355A40B5F10F07B8D90E
:100C60004140C4F12006A040F1414140B1FBF3FCFA
:100C700003FB1C11A2FB0C45001BA94103D2BCF1D4
:100C8000010C801859410F2F12D30F3FC90341EABD
:100C90005041B1FBF3F603FB1611A2FB0645D4EB62
:100CA000C030A94102D2761E8018594146EACC3C98
:100CB00007B34140C7F12006B840F1414140B1FBC4
:100CC000F3F603FB1611A2FB0645001BA94102D255
:100CD000761E8018594180EA010221FA0EF3C7F10D
:100CE000200462FA0EF20CFA07F05A402CFA04F1D2
:100CF0003043F0BD80EA010221FA0EF3002162FACE
:100D00000EF260465A40F0BD8C46B1FBF2F102FB98
:100D100011C31B0243EA1063B3FBF2FC02FB1C335A
:100D20001B024CEA002043EA1063B3FBF2FC02FB17
:100D30001C331B024CEA002043EA1063B3FBF2FCB5
:100D400002FB1C331B024CEA002043EA1063B3FB96
:100D5000F2FC02FB1C324CEA00200023704700002A
:100D600080B500F015FA00F039FA00F0D3FAFFF779
:100D7000FBFC00F08EFA00224FF4C041084800F05E
:100D80000DF94FF4967000F0B9FA01224FF4C0410A
:100D9000034800F003F94FF4967000F0AFFAE8E76B
:100DA0000018024072B6FEE7002200F00BBB000004
:100DB00078B4002200220022002341E0082604E04B
:100DC000DFF8EC219042F9D10726F6B213F00302C6
:100DD000D2B2920096403543DFF8D8211E00B60803
:100DE00042F82650DFF8D0211268A2434D68ED0387
:100DF00000D52243DFF8C0512A60DFF8C021126815
:100E0000A2434D68AD0300D52243DFF8B0512A60FC
:100E1000DFF8AC211268A2434D68ED0200D52243F1
:100E2000DFF89C512A60DFF89C211268A2434D68CC
:100E3000AD0201D514432200DFF8884122605B1C1B
:100E4000102B80F0A98001229A400C681440944233
:100E5000F5D10A7912F00302012A04D00A7912F0BE
:100E60000302022A17D1856803261A00D2B2520063
:100E70009640B543CE681A00D2B252009640354330
:100E80008560426801259D40AA434D68C5F3001561
:100E90009D402A4342600A7912F00302032A0DD0D2
:100EA000C56803261A00D2B252009640B5438E6838
:100EB0001A00D2B2520096403543C5600A7912F04A
:100EC0000302022A17D11A00D20800EB8202156A27
:100ED0000F2613F00702D2B292009640B5430E6976
:100EE00013F00702D2B29200964035431A00D2089E
:100EF00000EB82021562056803261A00D2B2520086
:100F00009640B5430E7916F003061A00D2B252008D
:100F10009640354305604A68D20090D50022009281
:100F2000294A126852F48042274D2A60264A1268E4
:100F300012F480420092009A1E4A1D00AD0852F839
:100F400025500F2613F00302D2B292009640B5430B
:100F50001E4A904201D1002637E71D4A904201D136
:100F6000012632E71B4A904201D102262DE71A4A98
:100F7000904201D1032628E7184A904201D1042665
:100F800023E7174A904201D105261EE7154A9042F1
:100F90007FF416AF062618E771BC7047D2B2002A5C
:100FA00002D089B2816102E089B20904816170478F
:100FB000001C024008380140003C0140043C014054
:100FC000083C01400C3C0140443802400000024013
:100FD0000004024000080240000C024000100240E1
:100FE000001402400018024010F0070049490A6846
:100FF0004FF6FF010A40484951EA00210A4345489B
:101000000260704743480068C0F30220704740B256
:10101000002808D4012210F01F018A403F4940B245
:10102000400941F82020704740B2002804D409014B
:101030003B4A40B2115407E009013A4A40B210F06D
:101040000F00104400F8041C704710B410F00700A3
:10105000D0F10703052B01D3042301E0D0F10703EE
:10106000041D072C01D2002000E0C01E012414FA48
:1010700003F35B1E19408140012313FA00F0401E68
:101080001040084310BC704780B5411EB1F1807F0D
:1010900001D301200EE0401E234908600F215FF0BC
:1010A000FF30FFF7C1FF00202049086007202049DA
:1010B0000860002002BD80B5FFF796FF01BD70B546
:1010C00004000D0016000020FFF79CFF32002900ED
:1010D000FFF7BBFF0100200040B2FFF7A5FF70BD86
:1010E00080B540B2FFF793FF01BD80B5FFF7CCFF9D
:1010F00002BD042806D10E48006850F004000C49D7
:10110000086005E00A48006830F0040008490860FB
:10111000704700000CED00E00000FA0500E100E07F
:1011200000E400E018ED00E014E000E018E000E06A
:1011300010E000E001480068704700BF0800002090
:1011400010B504004FF47A700D490978B0FBF1F046
:101150000C490968B1FBF0F0FFF7C7FF002801D088
:1011600001200CE0102C09D2002221005FF0FF309A
:10117000FFF7A5FF04480460002000E0012010BD37
:1011800054000020040000200000002070470000F0
:1011900080B51048006850F400700E4908600D4892
:1011A000006850F480600B4908600A48006850F4F9
:1011B0008070084908600320FFF77DFF0020FFF7DB
:1011C000BFFF00F019F9002002BD03480068000CC1
:1011D00070470000003C0240002004E080B592B05F
:1011E0000020002000903E48006850F080503C49AC
:1011F00008603B48006810F0805000900098002084
:1012000000903848006850F48040364908603548FE
:10121000006810F4804000900098012006905FF470
:101220008030079002200C905FF480000D90082021
:101230000E904FF4A8700F9002201090072011908C
:1012400006A800F0FDF8C0B2002800D0FEE70F208D
:10125000019002200290002003904FF4A0500490CF
:101260004FF480500590052101A8FFF74FFBC0B255
:10127000002800D0FEE7FFF7A8FF41F201018842F5
:1012800005D11948006850F480701749086013B000
:1012900000BD80B50020FFF72CFF15201349086022
:1012A00001BD1249096848431149086000201149ED
:1012B00008601148006850F001000F4908600E48AE
:1012C000006810F001100128F9D00B4800684008B0
:1012D0004000094908600020064908607047000086
:1012E0004038024000700040003C02400C000020EA
:1012F00014E000E018E000E010E000E038B5040081
:10130000002504E04FF47A70FFF7CBFF6D1CA54277
:10131000F8DB31BD80B586B001A81421FFF744FD8C
:10132000002000902548006850F0800023490860A4
:101330002248006810F08000009000980020009083
:101340001E48006850F001001C4908601B480068F6
:1013500010F00100009000980020009017480068ED
:1013600050F04000154908601448006810F0400033
:1013700000900098002000901048006850F0020093
:101380000E4908600D48006810F0020000900098B7
:1013900000224FF4C0410A48FFF700FE4FF4C0405E
:1013A000019001200290002003900020049001A9E8
:1013B0000348FFF7FDFC07B000BD00BF3038024016
:1013C0000018024000B500BF13009646944610393D
:1013D00028BFA0E80C50FAD85FEA417C28BF0CC0B7
:1013E00048BF40F8042BC90728BF20F8022B48BF8C
:1013F00000F8012B00BD000081B0002000900E48D5
:10140000006850F480400C4908600B48006810F4F4
:10141000804000900098002000900848006850F03C
:101420008050064908600548006810F08050009020
:10143000009801B0704700BF443802404038024075
:101440007CB50400002C01D10120EDE12078C0071B
:101450006FD5DFF8D803006810F00C0004280BD01B
:10146000DFF8C803006810F00C0008280ED1DFF880
:10147000C0030068400209D5DFF8B80300688003A4
:1014800057D56068002854D10120CDE16068B0F5DF
:10149000803F08D1DFF89C03006850F48030DFF80B
:1014A0009413086024E06068B0F5A02F10D1DFF835
:1014B0008403006850F48020DFF878130860DFF8B8
:1014C0007403006850F48030DFF8681308600FE0A0
:1014D000DFF86003006830F48030DFF858130860EC
:1014E000DFF85003006830F48020DFF8481308600C
:1014F000606800280ED0FFF71DFE0500DFF83403FA
:101500000068800315D4FFF715FE401B6528F5D34E
:10151000032089E1FFF70EFE0500DFF818030068DD
:10152000800306D5FFF706FE401B6528F5D3032090
:101530007AE12078800724D5DFF8F002006810F007
:101540000C0F0BD0DFF8E402006810F00C00082844
:101550002ED1DFF8DC020068400229D4DFF8D40283
:101560000068800704D5E068012801D001205BE114
:10157000B048006830F0F800216950EAC100AD4978
:1015800008602078000753D5606900283FD001200B
:10159000A9490860FFF7CEFD0500A848006880074C
:1015A00046D4FFF7C7FD401B0328F6D303203BE1D9
:1015B000E06800281AD00120A1490860FFF7BAFDB1
:1015C00005009C480068800706D4FFF7B3FD401B68
:1015D0000328F6D3032027E19648006830F0F8008E
:1015E000216950EAC10093490860CAE70020944984
:1015F0000860FFF79FFD05008E4800688007C0D592
:10160000FFF798FD401B0328F6D303200CE10020D0
:1016100089490860FFF78EFD05008848006880074B
:1016200006D5FFF787FD401B0328F6D30320FBE018
:10163000207840077DD5002582480068C0000ED480
:10164000002000907F48006850F080507D4908607D
:101650007C48006810F080500090009801257A487E
:101660000068C00513D47848006850F4807076494B
:101670000860FFF75FFD060073480068C00506D4E8
:10168000FFF758FD801B0328F6D30320CCE0A068A9
:10169000012806D16D48006850F001006B490860D0
:1016A0001BE0A06805280CD16848006850F00400D1
:1016B000664908606548006850F0010063490860A9
:1016C0000BE06248006840084000604908605F48DD
:1016D000006830F004005D490860A06800280FD061
:1016E000FFF728FD060059480068800718D4FFF767
:1016F00021FD801B41F289318842F4D3032093E01D
:10170000FFF718FD060051480068800708D5FFF76D
:1017100011FD801B41F289318842F4D3032083E01C
:10172000EDB2012D05D14748006830F080504549A1
:101730000860A069002876D03C48006810F00C00D2
:10174000082845D0A069022831D10020404908600E
:10175000FFF7F0FC050037480068800106D5FFF769
:10176000E9FC401B0328F6D303205DE0E169206A11
:101770000143606A51EA8011A06A4008401E51EAA4
:101780000041E06A51EA00612948016001203049C6
:101790000860FFF7CFFC040026480068800142D4AF
:1017A000FFF7C8FC001B0328F6D303203CE0002011
:1017B00027490860FFF7BEFC04001E48006880014E
:1017C00031D5FFF7B7FC001B0328F6D303202BE02D
:1017D000A069012801D1012026E015480068A1690F
:1017E00001291ED010F48001E269914219D110F054
:1017F0003F01226A914214D147F6C0710140626AEA
:10180000B1EB821F0DD110F44031A26A5208521E72
:10181000B1EB024F05D110F07060E16AB0EB016FDF
:1018200001D0012000E0002076BD00BF0838024052
:101830000438024000380240800E474274380240AB
:1018400000004742403802400070004070380240BB
:101850006000474230B5016884684218416802EB75
:101860005103C9070BD54C4409E012F9011B12F8CA
:10187000015B002904F8015B05D5491CF9D19A42A6
:10188000F3D10C3030BD491EF1D5F8E7FEE7FEE795
:10189000FEE7FEE7FEE770477047704780B500F04F
:1018A00009F801BD80B50248FEF7A9FC01BD0000A2
:1018B00010000020034800680349097840180149D6
:1018C00008607047080000205400002010B5074948
:1018D00079441831064C7C44163404E00A68081D2B
:1018E000114488470146A142F8D110BD2C000000E8
:1018F000380000004EF68851CEF20001086840F42E
:1019000070000860BFF34F8FBFF36F8F4FF0007010
:10191000E1EE100A704700003DFFFFFFDC01000010
:10192000160000000000002000F00DF8002801D093
:10193000FFF7CCFFAFF300800020AFF30080FFF78C
:101940000FFA00F002F80120704700F001B8000023
:101950000746384600F002F8FBE7000080B5AFF319
:101960000080024A11001820ABBEFBE726000200EF
:101970000348006850F47000014908607047000097
:1019800088ED00E0000000000000000001020304F8
:1019900006070809014880470148004771190008F7
:1019A000A5190008AFF30080FFF7A4FFFFF7BCFF05
:1019B0000000000001020304FFF7FEBFFFF7FEBFB7
:1019C000FFF7FEBFFFF7FEBFFFF7FEBFFFF7FEBF4B
:1019D000FFF7FEBFFFF7FEBFFFF7FEBFFFF7FEBF3B
:1019E000FFF7FEBFFFF7FEBFFFF7FEBFFFF7FEBF2B
:1019F000FFF7FEBFFFF7FEBFFFF7FEBFFFF7FEBF1B
:101A0000FFF7FEBFFFF7FEBFFFF7FEBFFFF7FEBF0A
:101A1000FFF7FEBFFFF7FEBFFFF7FEBFFFF7FEBFFA
:101A2000FFF7FEBFFFF7FEBFFFF7FEBFFFF7FEBFEA
:101A3000FFF7FEBFFFF7FEBFFFF7FEBFFFF7FEBFDA
:101A4000FFF7FEBFFFF7FEBFFFF7FEBFFFF7FEBFCA
:101A5000FFF7FEBFFFF7FEBFFFF7FEBFFFF7FEBFBA
:101A6000FFF7FEBFFFF7FEBFFFF7FEBFFFF7FEBFAA
:101A7000FFF7FEBFFFF7FEBFFFF7FEBFFFF7FEBF9A
:101A8000FFF7FEBFFFF7FEBFFFF7FEBFFFF7FEBF8A
:101A9000FFF7FEBFFFF7FEBFFFF7FEBFFFF7FEBF7A
:101AA000FFF7FEBFFFF7FEBFFFF7FEBFFFF7FEBF6A
:101AB000FFF7FEBFFFF7FEBFFFF7FEBFFFF7FEBF5A
:101AC000FFF7FEBFFFF7FEBFFFF7FEBFFFF7FEBF4A
:101AD000FFF7FEBFFFF7FEBFFFF7FEBFFFF7FEBF3A
:101AE000FFF7FEBFFFF7FEBFFFF7FEBFFFF7FEBF2A
:101AF000FFF7FEBFFFF7FEBF0010FC000124F4B3A8
:031B0000000001E1
:04000005080019A531
:00000001FF
